:100000006F200037130000001300000013000000F1
:100010001300000013000000130000001300000094
:100020001300000013000000130000001300000084
:08003000130000007300100032
:100038000000000000000000A8020000AC02000060
:1000480000000000B62200000000000000000000D0
:10005800B8220000BA2200000000000000000000E2
:10006800BC22000000000000BE22000000000000CA
:10007800C0220000C2220000C4220000C6220000E4
:10008800C8220000CA22000020030000CE2200007F
:10009800D0220000D2220000D4220000D622000084
:1000A800D8220000DA220000DC220000DE22000054
:1000B800E0220000E2220000E4220000E622000024
:1000C800E8220000EA220000EC220000EE220000F4
:1000D800F0220000F2220000F4220000F6220000C4
:1000E800F8220000FA220000FC220000FE22000094
:1000F8000023000002230000042300000623000060
:10010800082300000A2300000C2300000E2300002F
:1001180010230000122300001423000016230000FF
:10012800182300001A2300001C2300001E230000CF
:10013800202300002223000024230000262300009F
:10014800282300002A2300007C2200009A220000B5
:10015800302300003223000034230000362300003F
:10016800382300003A2300003C2300003E2300000F
:1001780040230000422300004423000046230000DF
:10018800482300004A230000EC1400004E2300001E
:10019800502300005223000054230000562300007F
:1001A800582300005A2300005C2300005E2300004F
:1001B800602300006223000064230000662300001F
:1001C800682300006A2300006C2300006E230000EF
:1001D8000000000000000000000000000000000017
:1001E8000000000000000000000000000000000007
:0801F8000000000000000000FF
:100200003D432A876373C3029377F700BDEFADE5E3
:10021000937606FF3D8ABA960CC34CC30CC74CC7F5
:100220004107E36BD7FE11E28280B306C3408A0622
:100230009702000096966780A6002307B700A306E2
:10024000B7002306B700A305B7002305B700A30432
:10025000B7002304B700A303B7002303B700A3022A
:10026000B7002302B700A301B7002301B700A30022
:10027000B7002300B700828093F5F50F93968500B1
:10028000D58D93960501D58D61B79396270097027A
:10029000000096968682E78086FA9680C1171D8FA9
:1002A0003E96E374C3F8A5B77300203001A03971FE
:1002B0008545154506DE22DC02CA02CC02CE02D0FC
:1002C00002D202D402D602C602C8EF2050118547DE
:1002D00037150140231AF1004C08930780041305D9
:1002E00005803ECEEF20E04181450145EF20C04D25
:1002F0000544A147081022D03ED422D602D2EF20D6
:10030000802B930760112316F1006800894722C8EB
:100310002307F100EF20606EF25062542161828069
:100320000545EF20E02F03C7118315C3238F0182FA
:1003300023880182A388018205472389E18223A2C1
:10034000018823A0018823A8018623AA01887300BD
:100350002030797122D426D22E84AA848545214565
:1003600006D6EF20D007854537054000EF2010095D
:100370008567938707C02312F10037150140F147C5
:100380003EC64C008D47130505C03EC4EF206037C4
:10039000B70700403ECA231C810093070040376422
:1003A0000040231DF1000C08916713050480231EF3
:1003B000F10026C8EF200044130504808545EF2096
:1003C0000055130504808545EF20E059B2502254B2
:1003D00092544561828083C79182411106C60547C8
:1003E000638DE70281CF09476380E7040D4763848B
:1003F000E70413050000B24041018280EF307076BF
:10040000B767000083A587E6EF309046B767000026
:1004100083A5C7E6EF30D045F9BFEF309074B767DA
:10042000000083A507E7CDB7EF30B073B7670000D2
:1004300083A547E7D1BFEF30D072B767000083A52F
:1004400087E7D9B783C78182411106C6054763890B
:10045000E70481CF0947638AE7060D47638AE70807
:1004600013050000B24041018280EF30906FEF3001
:10047000B07BB767000003A607E483A647E4EF302C
:10048000A0342A86AE86EF203041B767000003A66D
:1004900087E483A6C7E4EF302033EF40A003D9B749
:1004A000EF30306CEF305078B767000003A607E4F8
:1004B00083A647E4EF304031B767000003A607E5A5
:1004C00083A647E5EF304030C9B7EF309069EF3091
:1004D000B075B767000003A607E483A647E4EF30D2
:1004E000A02EB767000003A687E583A6C7E5D9BF9E
:1004F000EF303067EF305073B767000003A607E4B2
:1005000083A647E4EF30402CB767000003A607E658
:1005100083A647E645BF797126D2B764004022D44E
:100520004ECE2A84AE8913850480854506D64AD0EE
:1005300052CC56CA5AC8328AB68A5EC6EF20A0424A
:10054000138504808545B704030037690040EF2018
:10055000C03D8504130B0980A6855A85EF20C04451
:1005600065DD06041305098001469375E40F37091C
:100570000700B7640040EF20E04113092908138BFE
:100580000480CA855A85EF20204265DDCE8513851B
:100590000480EF20203F138504808545B7040300C5
:1005A00037690040EF206038850493090980A685EB
:1005B0004E85EF20603F65DD93651400054693F599
:1005C000F50F13050980B704030037640040EF20DE
:1005D000603C890413040480A6852285EF20C03C7A
:1005E00065DDB7640040370900109384048001443E
:1005F00013090904930BEAFFA689631544033765C1
:100600000040130505808545EF200034B250225488
:1006100092540259F249624AD24A424BB24B0145C6
:1006200045618280CA852685EF20A03979D5338B34
:100630008A006316740181454E85EF20C0324E85D5
:10064000EF20A0342300AB00050445BF797126D20A
:100650004AD04ECE2E89AA89B28434001946930519
:1006600030041305800622D406D675352A8429E184
:10067000034581008347910022055D8D4205418538
:10068000993B23A0A9000345A1008347B10022059F
:100690005D8D4205418581332320A9000345C100BA
:1006A0008347D10022055D8D420541852D3388C0E9
:1006B0002285B250225492540259F24945618280F7
:1006C000797126D24AD04ECE2E89AA89B2843400BE
:1006D00019469305B0031305800622D406D6253D9E
:1006E0002A8429E1034581008347910022055D8D1D
:1006F00042054185813B23A0A9000345A100834712
:10070000B10022055D8D420541852D3B2320A900C6
:100710000345C1008347D10022055D8D4205418517
:10072000153388C02285B250225492540259F2499E
:1007300045618280011122CC376400404AC84EC610
:100740002E89AA8985451305048006CE26CA52C47F
:10075000EF20602113050480854537040300B7644A
:100760000040EF20801C0504138A0480A285528576
:10077000EF20802365DD1385048001469305000D7D
:10078000B704070037640040EF20C020938424089A
:1007900013040480A6852285EF20002165DD37043F
:1007A0000010B764004013040408138A0480A28573
:1007B0005285EF20002165DD13850480CE85B704C6
:1007C000070037640040EF20E01B938444081304C3
:1007D0000480A6852285EF20201D65DDB70400106A
:1007E000376400409384040893090480A6854E85ED
:1007F000EF20201D65DDCA8513050480EF208018D9
:10080000130504808545EF202014F2406244D24451
:100810004249B249224A014505618280931535005B
:10082000A384A18293F5850F6D4529B793153500F3
:100830002384A18293F5850F7145EDBD9307B00B1D
:10084000854563E5A70293071006894563E0A70283
:10085000930790028D4563EBA700CD47914563E771
:10086000A700A547954563E3A70099456945D9B514
:100870009147AA856373F50091451397050141835C
:100880009307803E63F4E7009305803EC205C18173
:100890009307803EB3C5B7026545FD1593F5F50F87
:1008A00051BD011122CC376400404AC885452A89D0
:1008B0001305048006CE26CA4EC6EF20C00A1305D3
:1008C0000480854537040300B7640040EF20E0054D
:1008D000050493890480A2854E85EF20E00C65DD38
:1008E0001385048001469305000D37040700B764A3
:1008F0000040EF20200A1304240893890480A28575
:100900004E85EF20600A65DDCA85138504803704B3
:100910000700B7640040EF20E00613044408138981
:100920000480A2854A85EF20200865DD13850480B8
:10093000854537040300B7640040EF10107F0504BD
:1009400013890480A2854A85EF20000665DD1385A2
:10095000048005469305100DB7040300376400407A
:10096000EF204003890413040480A6852285EF202C
:10097000A00365DDB70400103764004093840404CD
:1009800013090480A6854A85EF20A00365DD1305C1
:100990000480EF10907FAA84854513050480EF1032
:1009A000B07AF240624426854249D244B249056198
:1009B00082806165411189451305056A06C6EFF01D
:1009C0005F99930500081305B006AD331305401F6A
:1009D000EF20A05C81451305B006A93B0D453D3DC8
:1009E0000D45A9351305803E61351305401FB93506
:1009F0008145130580033D3B81451305A0061D3B42
:100A00008145130530023D3393050008130570033B
:100A10001533130550077135130780068547631B8F
:100A2000E50085451305B006313381451305C00641
:100A300011338147B2403E854101828013578500C2
:100A4000B70702602380E7001375F50F2380A70026
:100A50008280B707026083C70700411193F7F70F41
:100A6000A307F1000345F1004101828035711306AF
:100A7000C0038145C80006CF22CD26CB4AC94EC748
:100A800052C556C302C0930AC10002C202C4EFF0AD
:100A90002FF7714681455685EFF08FF6130A8102D4
:100AA000714681455285EFF0AFF58545130500107D
:100AB000EF200011854513058006EF204012B71482
:100AC0000140F1770D44E149938737738A85138597
:100AD00004402310F1004EC422C2EF10904237258B
:100AE0000140930700F88A85130505802310F10063
:100AF0004EC422C2EF10F0408A8513850440056978
:100B0000231021014EC422C2EF10B03FC1478A8595
:100B100013850440130909803EC42310210122C219
:100B20000569EF10103E9305098013850440EF100E
:100B3000704985473EC6BD473ECAC800916722D866
:100B4000CAD4BED8D6DCD2DE02C802CC02CE02D0D5
:100B500002D202D402D602DA02DC02DE82C082C2F3
:100B600082C482C682C882CA82CE82CC82D082D21D
:100B700082D682DAEF10702B85450145EF10903652
:100B8000FA406A44DA444A49BA492A4A9A4A0D6103
:100B900082800565397185451305958006DE22DC66
:100BA000EF20E0039167231AF10037150140E14778
:100BB0003ECE4C088D47130505C03ECCEF10703477
:100BC000373401409307F0083EC42C0093074006D9
:100BD000130504C03EC6EF2040049307000623100F
:100BE000F102B707320091070C10130504C03ED282
:100BF00023150102EF20600E130504C08545EF2088
:100C0000401C130504C08145EF204020130504C09B
:100C10008545EF20C01D130504C08545EF20A018B1
:100C2000F250625421618280930740069375F50F5C
:100C300063F4A7009305400637350140130505C04E
:100C40006F20601E93578500135755001377077E5A
:100C500093F707800D81D98F7D895D8D4205418194
:100C6000828023950182B70700202398B7068280EF
:100C7000B70702601307A002A38FE7FE1357850092
:100C80002380E7001375F50F2380A7001357860014
:100C90002380E7001376F60F2380C7001307B00206
:100CA000A38FE7FE13D785002380E70093F5F50FA8
:100CB0002380B70013D786002380E70093F6F60F52
:100CC0002380D7001307C002A38FE7FE8280B707F7
:100CD00002601307A002A38FE7FE1357850023804D
:100CE000E7001375F50F2380A700135786002380B4
:100CF000E7001376F60F2380C7001307B002A38F17
:100D0000E7FE13D785002380E70093F5F50F2380D6
:100D1000B70013D786002380E70093F6F60F2380F1
:100D2000D7001307E002A38FE7FE8280411122C49F
:100D300026C29306F00E935485001374F50F130624
:100D4000F00E8145014506C625371307000FB7068B
:100D500002609307000FFD1723809600C2072380CF
:100D60008600C183EDFB7D17420741837DF3B240CE
:100D70002244924441018280011106CE22CC26CA2F
:100D80004AC8013DE531370402609147A30FF4FEE4
:100D9000C931C1312AC675392A896539B245AA8453
:100DA000376500001305C5E7EF30D0103765000048
:100DB000CA851305C5E9EF30F00F37650000A68539
:100DC000130505EBEF30100F13052003EF20E01C97
:100DD00093076003A30FF4FE230004001306A0038F
:100DE000A30FC4FE95472300F400930720FBA30F35
:100DF000F4FEB1462300D4002300D40023000400F5
:100E0000930730032300F4002300F400130770FB62
:100E1000A30FE4FE230004001307B0FBA30FE4FEBE
:100E20001303F00323006400130700FCA30FE4FE88
:100E30001307C0022300E400130720FCA30FE4FE05
:100E400005472300E400130730FCA30FE4FEB54878
:100E500023001401130740FCA30FE4FE1307000254
:100E60002300E400130760FCA30FE4FE0D472300FA
:100E7000E400930500FDA30FB4FE930540FA2300A0
:100E8000B400930510FA2300B4008155A30FB4FEFB
:100E90004158230004012300E400A5452300B400C9
:100EA0002300E40041452300E4009305D002230021
:100EB000A4002300B400130730042300E40023003F
:100EC00064002300F4002300140139472300E400E8
:100ED000930490022300940093082003230014013C
:100EE0008558A30F14FF230004012300D40023001E
:100EF000A4002300E4002300E40029472300E400C9
:100F00002300B4002300F400930750042300F400EE
:100F10002300C400D1472300F400E5472300F40078
:100F2000930710032300F400930770032300F400D9
:100F300093071002A30FF4FEC547A30FF4FE130599
:100F40004006EF2080050145D533A30F94FEF24003
:100F50006244D24442490561828013D81600930747
:100F6000000F338807416360A838958F63EDB7366B
:100F70001301019C232C8162232A9162232821637F
:100F8000232631630116232E116223244163232279
:100F9000516323206163232E7161232C8161232AF5
:100FA00091612328A1612326B161C147BA89AE842A
:100FB0002A841379F60F6393F610130A7400938A48
:100FC000F4001306001881450A85420AC20AEFF0B0
:100FD0002FA3135A0A0193DA0A01638C0908D686F3
:100FE000A68552862285996A613112098144938AC5
:100FF0000AF3E14BB70C0020414B33847403B30771
:101000009900D69703CD0700214A0A9493178D01C2
:10101000E18763D4070803D50C077D1A420A060D41
:10102000135A0A01EFF09FA1137DFD0F0D04E31F7A
:101030000AFC8504E39364FD8320C1630324816378
:1010400083244163032901638329C162032A8162E6
:10105000832A4162032B0162832BC161032C8161CE
:10106000832C4161032D0161832DC1601301016453
:101070008280D6865286A68522859139EFF07F9DA3
:10108000014B930B0018EFF0DF9CB3076101238045
:10109000A700050BE3197BFF99B76385090003D50A
:1010A000A182A5BF8347040003451400C20722059F
:1010B000C98F034524005D8D713685B7E14763957F
:1010C000F610930AB400138A7401130600368145A2
:1010D0000A85C20A420AEFF0AF9293DA0A01135A64
:1010E0000A0163820908A685D2865686228549367A
:1010F000930700183309F902196C8A84814C130C88
:101100000C51B70D002013593900139B0C019307A4
:101110000003135B0B01E381FCF233079901629733
:10112000137B1B00834A0700A14B63030B00914B09
:10113000C20B2684014A93DB0B0113978A01618756
:101140006357070403D50D07050A420A860A135A96
:101150000A01EFF0BF8E93FAFA0F0D04E36F7AFDE8
:10116000850CC9045DB7D2865686A685228585364C
:10117000EFF03F8E014B930B0036EFF09F8DB307DE
:1011800061012380A700050BE3197BFFA9BF6385DD
:10119000090003D5A1824DBF631E0B000347040065
:1011A0000345140042072205498F03452400598D49
:1011B000513C59BF034764000345740042072205B0
:1011C000498F03458400E5B793070002639BF60C43
:1011D000130AF400938AF4011306006081450A851E
:1011E000420AC20AEFF0CF81135A0A0193DA0A01C8
:1011F00063820906D686A685528622859D6AEFF00F
:101200003FA71A098144938A0A6BE14BB70C00206F
:10121000130B000433847403B3079900D69703CDEE
:101220000700214A0A9493178D01E18763D90704C7
:1012300003D50C077D1A420A060D135A0A01EFF076
:10124000EFFF137DFD0F0D04E31F0AFC8504E393FC
:1012500064FDDDB3D6865286A6852285EFF03FA7D2
:10126000EFF02FFF014B930B0060EFF08FFEB30701
:1012700061012380A700050BE3197BFFA5BF6385F0
:10128000090003D5A1827DB78347040003451400FC
:10129000C2072205C98F034524005D8DEFF09F9A98
:1012A00051BF032481638320C163832441630329E5
:1012B00001638329C162032A8162832A4162032B6D
:1012C0000162832BC161032C8161832C4161032D59
:1012D0000161832DC16037650000130545EC1301E2
:1012E00001646F30203D8280557126DB4AD94ED78C
:1012F000AA84B2892E89130600088145080822DDD8
:101300005ECF3A84BEC306DF52D556D35AD162CDE2
:10131000B68BC2C5C6C7EFE0BFEE13F779FFC14772
:10132000630DF700930700026389F9003765000039
:10133000CE85130505F1EF30E037D4012286930501
:101340004006080836C6EF30404F13D71900930700
:10135000000F131B0701416A338CE740135B0B013D
:101360000008B38A3741130A0A808347040089EFD3
:10137000FA506A54DA544A59BA592A5A9A5A0A5BA4
:10138000FA4B6A4C6961828063779C004E994209EE
:1013900013590901814463F72A015285EFF01F991F
:1013A00001498144034604002685DA945E87CE868F
:1013B000CA85C2045D36C180050445BF397126DA8D
:1013C0008545AA84094506DE22DCEF10607F3704DC
:1013D000024013058445EF104002B70702603EC487
:1013E000930700043ECA85673ED44C0091671305FD
:1013F000844526C202C602C802CC02CE02D002D266
:101400003ED6EF104016F2506254D25421618280D1
:1014100001118545096506CE22CCEF10607A3704AC
:10142000055083470400280093F7F70C2300F400CD
:101430008347040093E727012300F4008347140047
:1014400093F7970FA300F4009307000F2312F40003
:101450009307003C2313F40083A741801CC483A797
:1014600081805CC48347140093F7F703A300F40062
:101470008347140093F7F70FA300F4008347240079
:1014800093E707012301F4008347240093E78700D3
:101490002301F4008347240093E747002301F4006D
:1014A0008347240093E727002301F40083472400A7
:1014B00093E717002301F400930760052314F1005C
:1014C00085473EC623050100EF10205383471400D3
:1014D00093E71700A300F4008347040093E7170085
:1014E0002300F400F240624405618280411122C66B
:1014F00026C4B707055003C70701098B35CF03C7BB
:1015000007011377D70F2388E7009387C182984399
:10151000058B6307070E9843370502408145050791
:101520001305854598C3EF10800781479306001E79
:101530009384418090401397170032973306F74009
:1015400003570700850709832300E600E392D7FECF
:1015500037040240130584459305001EEF10600513
:101560009C401305844585451CC5EF1040039387B7
:1015700081839843050798C3B707055003C7070140
:10158000118B19CB03C707011377B70F2388E70027
:1015900023A6018223AC0182B707055003C70701C8
:1015A000058B01CF03C707011377E70F2388E700F7
:1015B000938741839843050798C3B707055003C72E
:1015C0000701418B19C703C707011377F70E23885B
:1015D000E700B707055003C70701218B09CF03C7F1
:1015E000070137950000130505E31377770F23886C
:1015F000E700EF30C01D3244A244410173002030A7
:10160000984337050240814505071305854598C372
:10161000EF00F07881479306001E9384818090400C
:101620001397170032973306F740035707008507D3
:1016300009832300E600E392D7FE19BFC146A167E4
:1016400021673386F7026373C500B98FFD160583E2
:1016500099C2D98FFDB73E8582805D71094586C6E6
:10166000A2C4A6C2CAC04EDE52DC56DA5AD85ED632
:1016700062D466D26AD06ECEEF10C037EF10B00CD5
:10168000716513050520EF10301403A64181B7479B
:101690000F00938707243354F60237950000130593
:1016A00045E4416A09698544379C0000B79C000005
:1016B0003376F6029307803EA2857D144204418072
:1016C0003356F602EF20107FEFF00FEB13054006C4
:1016D000EF10B00C1305B004EFF00FD59305FAFF2F
:1016E0001305398E23899182EFF0AFD73797000029
:1016F000130787E68546614681452945F5369305FA
:10170000FAFF1305398EEFF0CFD537970000130796
:10171000C7E785464146930540065145F136EFF04F
:101720004FA90945EFF08F8F0D45EFF02F9013056E
:10173000803EEFF0EF931305401FEFF02F90A38E44
:101740009182238E918223A20188EFE05FB6A28569
:101750001305703EEF007022EF00D02D2165A285A9
:1017600013054523EF001027EF00102F37950000D9
:10177000130505E9EF30A005379500001305C5EA0C
:10178000EF30E004B797000003ABC7E3B797000062
:1017900083AB07E493892183138AD1831389C1839F
:1017A0002945EF10A07C096581451305358EEFF0C2
:1017B0004FCB83470A006381071683C701831384D5
:1017C0000183639907141386818593854185138569
:1017D0000185EFE0FFEE1386C1879385818713852E
:1017E0004187EFE0BFE69387018583A40185984791
:1017F00003AD4700A68526853AC4EF2070072AC2AC
:10180000EA856A85EF20D0069247AA853E85EF20BB
:10181000204722472AC2BA853A85EF2070059247B1
:10182000AA853E85EF20C045DA85EF207004EF20C1
:10183000302D293583A54187938D418783A64D009F
:1018400023AEA18403A78D002AC62E853AC236C4D2
:10185000EF201002A246AA8DB6853685EF205001F2
:10186000AA856E85EF20C0411247AA8DBA853A85B8
:10187000EF201000AA856E85EF208040DE85EF20E6
:10188000207FEF20F0275D3B23A4A18803A70181DF
:10189000B247635BF71883A6418823A0D188054629
:1018A000238FC18203A64189634AF60003A60187FC
:1018B0001305803E3386C6406376C50023A8D186D3
:1018C00023AAF18803A7C1806356F7042685EF2079
:1018D0003023935DF54133C5AD00B30DB5416A8545
:1018E000EF2010229357F5413D8D1D8D930500008B
:1018F0006354B5172685EF20406F930500006353AE
:10190000A0146A85EF20606EC9476343A000E147D9
:101910002300F40023000A0083470900E38207E85C
:1019200083C71183E39E07E683C7090099CBA165AE
:101930000965938505431305358EEFF08FB223803B
:10194000090083C7E1833794000063820714896428
:10195000FD451385348EEFF0CFB037970000930527
:1019600080025145130707EB85464146EFF0DF97AC
:10197000C165FD151385348EEFF0AFAE1307C4EBD0
:1019800085464146930500052945EFF0FF9583C73D
:101990000183C1CB41648964930504801385348E2F
:1019A000EFF02FAC37970000130787EE85464146CE
:1019B000930580025145EFF03F93379700001307DE
:1019C00047EF85464146930500050145EFF0DF915D
:1019D000930504800145EFF0CFA87D149384348EE5
:1019E000C9296319050C9306F00E1306F00E930532
:1019F0008007EFF0EFA713054006EF10005AEF0045
:101A0000806613054006EF10405937950000130516
:101A1000C5F2EF20D05B03A54180EFF03F9AEFF0D5
:101A20003F9F23000900ADBB83A6018803A741881F
:101A3000158F9306703EE3F7E6E8238F018223AA11
:101A4000018849B56A85EF20405A93072004E34195
:101A5000A0EC930780046DBD6A85EF2000599305C3
:101A60000000635CA0002685EF2020589307100239
:101A7000E340A0EA9307400261BD2685EF20E056CF
:101A8000930710F8E346A0E8930740F851B5C16505
:101A90000965FD151305358EEFF0AF9C37970000F3
:101AA0001307C7ED85464146930580025145EFF087
:101AB000BF83E9B5A2852685EFF0AF9A13074CF1F5
:101AC00085466146930520032945EFF0FF81130504
:101AD000401FEF10804CA2852685EFF08F9813876A
:101AE0000CF285466146930520032945EFF0CFFFB0
:101AF000C5BDB717014003A747C0FD769386F60F13
:101B0000758F23A2E7C003A747C0C576FD161367EC
:101B1000073023A2E7C003A747C0758F23A2E7C001
:101B200003A747C08D66558F23A2E7C01307004067
:101B300023A8E7C005671307078023A8E7C08280B2
:101B4000411126C2856406C622C44AC0371401402A
:101B500093840480232894C013090040232824C1BF
:101B600013052003EF10804013052003232A94C09F
:101B7000EF10C03FB240232A24C1224492440249BC
:101B800041018280411126C2856406C622C4938425
:101B9000048037140140232A94C013052003EF105A
:101BA000E03C930700402328F4C013052003EF1006
:101BB000E03B232894C02244B24092441305200302
:101BC00041016F10A03A411126C2856422C493845A
:101BD0000480371401401305200306C64AC0EF10E5
:101BE000E03813090040232894C0232824C113059A
:101BF0002003EF10A03713052003232A24C1EF1080
:101C0000E036232A94C02244B2409244024913058C
:101C1000200341016F108035011152C4056A26CAA4
:101C20004AC84EC656C206CE22CC2A89A144B71A4B
:101C30000140130A0A809309004093178901E18744
:101C400013870AC063D80708232847011305200318
:101C5000EF10C0311305200323A83AC1FD14060973
:101C6000EF10C03093F4F40F23AA3AC11379F90F9F
:101C7000E9F483A74AC0C574FD14E58F23A2FAC016
:101C800083A74AC0216713052003D98F23A2FAC076
:101C9000EF10C02D1305200323A83AC1EF10002D2B
:101CA00003A58AC023AA3AC183A74AC0F24062446E
:101CB000FD8C23A29AC083A74AC00D672D81D98FBE
:101CC00023A2FAC0D2444249B249224A924A058923
:101CD00005618280232A470195BFB717014003A7FA
:101CE00047C0C5760111FD1622CC26CA4AC84EC689
:101CF00052C4758F06CE23A2E7C003A747C0A166D2
:101D00000569558F23A2E7C0A1440144371A014059
:101D1000930900401309098013052003EF100025E3
:101D200023283AC183278AC006041374F40FB3F73B
:101D3000270181C705041374F40F13052003FD1454
:101D4000EF10C02293F4F40F232A3AC1F1F40327D1
:101D50004AC0C576FD16758F2322EAC003274AC004
:101D60002285F24062448D66558F2322EAC0D24418
:101D70004249B249224A05618280011106CE2EC62F
:101D800022CC26CAAA846D3B1305000671352A842D
:101D900013054006EF10801D2685BD3D498C1305B7
:101DA0004006EF10A01CB2452E85BD3509C905447B
:101DB000D13B2285F2406244D24405618280137493
:101DC000F40F33348000EDB7011106CE22CC2A8403
:101DD000853B13050006893513054006EF100019F1
:101DE00022851D3D13054006EF104018613B130589
:101DF0004006EF10A017EFF0BFD413051006293DE1
:101E000013054006EF108016C93D2AC66D3B9D3B69
:101E1000F24062443245056182807971854513053F
:101E2000C00306D622D426D24AD04ECEB7140140E3
:101E3000EF00F05A9309000841490D444C00138506
:101E400004C0231231014AC622C4EF00900B4C009B
:101E500037150140231231014AC622C4EF00700A2F
:101E600013048004930700674C0013850480231239
:101E7000F10022C6EF00F0088567938707F44C0055
:101E8000138504C02312F10022C6EF009007896772
:101E9000938707F04C003715014022C62312F1004A
:101EA000EF003006B250225492540259F249456173
:101EB0008280411106C622C426C237140140B13FB8
:101EC0009304000844C82945EF10200D2945232A12
:101ED00094C0EF10800C232894C0EFF09FC185457B
:101EE0001305F00F593D9305000849457935130551
:101EF0002003EF10800A7145C13D13140501418094
:101F0000220442047545C9354180418D9315050170
:101F1000A167C181938727FA638EF500379500008A
:101F20001305C5F3EF2000790545B24022449244E1
:101F3000410182802945493D131405014180220455
:101F400042042D4551354180418D93150501896726
:101F5000C18193872764638AF500379500001305D4
:101F600085F4EF2020750945C9B72564130444F5AD
:101F70009304441683451400034504000904F53B0B
:101F8000E31A94FE014555B7411122C42564130498
:101F9000840B26C206C69304C4018345140003457E
:101FA00004000904EFF07FDDE31994FEB2402244FF
:101FB000924441018280B367B5008D8BB5E7411132
:101FC00022C426C22A84AE841305F00F814506C6BA
:101FD000EFF0BFDA91451305000EEFF01FDA9355CD
:101FE000240093F5F50F1305A005EFF01FD993D545
:101FF000240093F5F50F1305B005EFF01FD893D526
:10200000840029800D889189C18D1305C005EFF0EA
:10201000DFD681451305000EEFF03FD6B2402244D3
:10202000924401454101828005458280411122C4CC
:1020300026C22E84AA8481451305F00F06C6EFF050
:10204000DFD3A6851305300DEFF03FD3854513058B
:10205000F00FEFF09FD2A2852244B2409244454552
:1020600041016FF09FD1411106C6393F930500141D
:102070001305000F8937B2408D453D4541017DB7BD
:10208000B71702409843B706FFF8411113671700CE
:1020900098C3D84337060200758FD8C39843B70654
:1020A000F7FEFD16758F98C39843B706FCFFFD1623
:1020B000758F98C3D843B70681FFFD16758FD8C3B7
:1020C0009843B70600ECFD16758F98C33707FF00DD
:1020D00098C723A6070202C402C69843C166558F5B
:1020E00098C3B716024005679C42F18F3EC6A247CF
:1020F00085073EC4B24781E7A247E397E7FEB717DB
:1021000002409C431397E7006357070685473EC686
:1021100032478547631FF704B7170240D843B70615
:10212000C1FFFD16D8C3D843D8C3D84313670740AF
:10213000D8C3D843758FD8C3D843B7061D00558F71
:10214000D8C39843B7060001558F98C39843931698
:102150006700E3DD06FED843B7160240719BD8C383
:10216000D84313672700D8C32147DC42B18BE39ED5
:10217000E7FE4101828002C661BF011122CC26CA5E
:102180002E84AA848545414506CEEF003027C147FD
:102190004C00371500402313F10023149100231243
:1021A000810023150100EF005027054685453715AE
:1021B0000040EF007042854537150040EF00304386
:1021C000854537150040EF00103EF2406244D2448E
:1021D00005618280011122CC26CA2E84AA848545FD
:1021E0001305000206CEEF00702123128100371480
:1021F0000040C1474C00130504402313F100231491
:10220000910023150100EF005021054613050440FD
:102210008545EF00703C130504408545EF00303DD7
:10222000130504408545EF001038F2406244D24463
:1022300005618280011193076014231501002314A6
:10224000F10089472305F1002800854706CE3EC6E8
:102250006D27F240056182800111930770142315E8
:1022600001002314F10089472305F1002800854768
:1022700006CE3EC65927F240056182808545371556
:102280000040EF00B03A0547A38EE18283A7418862
:10229000850723A2F188730020303715004085455B
:1022A00013050540EF0090380547238EE182730047
:1022B000203001A001A001A001A001A001A001A067
:1022C00001A001A001A001A001A001A001A001A006
:1022D00001A001A001A001A001A001A001A001A0F6
:1022E00001A001A001A001A001A001A001A001A0E6
:1022F00001A001A001A001A001A001A001A001A0D6
:1023000001A001A001A001A001A001A001A001A0C5
:1023100001A001A001A001A001A001A001A001A0B5
:1023200001A001A001A001A001A001A001A001A0A5
:1023300001A001A001A001A001A001A001A001A095
:1023400001A001A001A001A001A001A001A001A085
:1023500001A001A001A001A001A001A001A001A075
:1023600001A001A001A001A001A001A001A001A065
:1023700097E1FF1F9381015017610020130181C86D
:1023800017750000130505F797E5FF1F938585C7AF
:102390001386818263FAC5008322050023A05500BD
:1023A00011059105E3EAC5FE138581829385C189F4
:1023B0006377B500232005001105E36DB5FEFD42EE
:1023C000739002BCFD4273904280B762000093821A
:1023D000820873A0023097E2FFFF938222C693E245
:1023E000320073905230EFF0BFC997F2FFFF938233
:1023F000022773901234730020301C414167791713
:10240000F98F1CC123200500232205002324050089
:10241000B707024023260500138787006317E500EE
:10242000D8431367F700D8C382801387C7016316A8
:10243000E500D8431367070FFDB713870703631839
:10244000E500D8438566938606F0558FE9BF13876C
:1024500047046315E500D843BD66C5BF13878705EC
:102460006316E500D843B7060F00C5B71387C70644
:102470006316E500D843B706F000C1BF138707080D
:102480006316E500D843B706000FC1B7138787402E
:102490006319E50003A747401367F70023A2E7404D
:1024A00082801387C7416317E50003A7474013677E
:1024B000070FEDB793870743631BF500B70702408B
:1024C00003A747408566938606F0558FC1BFB707BF
:1024D0000240138747446316E50003A74740BD66E3
:1024E000EDB7138787456317E50003A74740B70695
:1024F0000F00E1BF1387C7466317E50003A74740F6
:10250000B706F000D9B7138707486317E50003A79C
:102510004740B706000F55BF138707496319E50009
:1025200003A7474D1367F70023AAE74C8280138760
:10253000074A6317E50003A7474D1367070FEDB779
:102540001387074B6319E50003A7474D85669386FC
:1025500006F0558FD1BF1387074CE319E5FC03A79D
:10256000474DBD66FDB71C4161773D0794517D8F96
:102570009C45D58F9449D58FD449D58F944DD58F0F
:10258000D44DD58FD451D58F9455D58FD98F1CC1AB
:10259000DC455CC19C411CC5DC415CC582801C41A2
:1025A00089C593E717001CC1828041677917F98FAD
:1025B000DDBF4CC182805841032805004C453706D9
:1025C0000140930706403E979346F8FFB1C5832527
:1025D0000640F58D2320B640D043F18ED4C314437A
:1025E000B3E6060114C3184190479346F7FF758E72
:1025F00090C7D047F18ED4C7144541466399C600B1
:102600009447D98E94C7D447558FD8C78280B69740
:102610009443558F98C382801C43F58F1CC38280DE
:10262000B707014023AAA740828014455C41584562
:102630000328C502D58FD98F1849370600A0D98F36
:102640005849D98F184DD98F584DD98F1851D98FD6
:102650005851D98F1855D98F1859B3E70701D98F19
:1026600018410A073A961CC2A1476396F6001C421D
:1026700093E707041CC254598C4E9C42CD8FCC4228
:102680009205CD8F8C46A205CD8FCC46C205CD8F4D
:102690008C4AD44AD205CD8FE206D58F5CC29167B1
:1026A0006319F802145D904E9C42D18FD0421206FD
:1026B000D18F90462206D18F904AD44A5206E20624
:1026C000D18FD58FB70600A09386461036971CC3CE
:1026D0008280B70700A0938747103E97B707001086
:1026E000FD17F5B7B70700A00A053E951C4189C53F
:1026F00093E717001CC18280370710007917F98F04
:10270000D5BF9C4513F7070113F8F70001C7D8415F
:102710003368E80083D5050013F7F50F39C3184176
:102720008146854E3D4F930F800293028004214ED7
:102730003396DE00B3F8C5006311160393982600A4
:1027400033131F011343F3FF3377E300B31818016A
:1027500033E7E800639FF70550C98506E39AC6FD95
:1027600018C11307F00F6375B70454412146854E15
:102770003D4F930F800293028004414EB398CE00E8
:1027800033F715016392E80213172600011733137C
:10279000EF001343F3FFB376D3003317E800D98E6D
:1027A000639DF701232A15010506E319C6FD54C1EF
:1027B0008280E39457FA10C94DB7E39757FE232858
:1027C0001501DDB74CC9828013F7C50F93F73500AB
:1027D000B7050140BA9594458A073D473317F7007E
:1027E0001347F7FF758F98C598453315F500598D38
:1027F00088C58280397122DC26DA2A848354450018
:1028000068082EC606DE7524925737470F00130757
:10281000072433D7E702C204C18093F404FCC20446
:10282000C180B24561651305056A1316070141822F
:10283000D18C2312940083560400C206C182F99AF7
:10284000C206C1822310D40094416366D506860671
:10285000B3D7D7029146139707014183BA876373B1
:10286000D700914705064206C2074182C183231063
:10287000C402231EF4008357040003D7450083D607
:10288000A50093E717002310F40083570400558F29
:10289000F250C207C18393F757BFD98F2310F400BA
:1028A00003D7850083D7C500D254D98F2314F400F1
:1028B00062542161828003D5650031667D16631EF6
:1028C000C5020D46B386C602B3D7D702C207C1837D
:1028D0009396470199E293E71700A166D58F930677
:1028E000C0123307D7029306803E3347D70205074D
:1028F000420741832310E402ADBF6546B386C6029A
:10290000B3D7D7029166C207C183D58FD1B783579A
:10291000050091C593E717002310F5008280C207D8
:10292000C183F99BC207C183C5BF8357050091C509
:1029300093E707102310F5008280C207C18393F745
:10294000F7EFC207C183FDB78357050091C593E731
:1029500007202310F5008280C207C18393F7F7DFB9
:10296000C207C183FDB78357050091C593E70740B0
:102970002310F5008280C207C18393F7F7BFC20717
:10298000C183FDB72318B500828003550501137577
:10299000F50F828093F7E50F19C293E71500C20780
:1029A000C1832318F50082808357450103558501B3
:1029B00042055D8D6D8D220521810D8D133515002C
:1029C0008280411102C402C693D7C5012AC63EC403
:1029D000A247A205A18199CBB247D1073EC6B24713
:1029E000884341016D8D3335A0008280B247C1819B
:1029F000E107EDB723A0A1848280938701849443EB
:102A00000347050089E683472500920731A89443D0
:102A100005466391C60483472500034615009207C7
:102A20006314D60093E707F8B7E600E093F7F70FD3
:102A3000BA962380F6408546935757003397E600B1
:102A40005441ADC6938707048A07B7E600E0B697FE
:102A500098C382808C4389466393D50283461500D0
:102A6000834725006365D6008A06B69779BF9386AB
:102A7000E6038A06B69793F7F70F920765B7904378
:102A80008D46631ED6008346150083472500636488
:102A9000D6008606D9BF9386C6078606E1BF944353
:102AA0009147E39AF6F88347150085B793870706A1
:102AB00061BF371702405C439146B18B6385D700F5
:102AC000A1466386D706B7177A00938707201CC1F3
:102AD000371602405C423707002013070700918336
:102AE000BD8BBA9783C607001C41B3D7D7005CC122
:102AF0005442A1829D8ABA9683C60600B3D6D700F7
:102B000014C55442AD829D8A369703470700B3D758
:102B1000E7005CC55842398393763700138781817B
:102B2000369703470700B3D7E7021CC982805C438E
:102B300054434167C983F98E37F7FF1F0327C770D6
:102B4000BD8B8907131617016348060045460147E8
:102B50006392C702C94739A809476389E7023D471D
:102B60006388E70241476388E7024546014763936C
:102B7000C700C14785E6B746024083A60680C18AE2
:102B80008DC6B7167A009386062025A00147D9B7CF
:102B90000547B547C5B70147BD47E9BFB71602406E
:102BA000D4421396E600E35E06FCB7163D0093861A
:102BB0000690B387D7021CC101DF1C41858301BF8A
:102BC00099C5371702405C4B5D8D48CB8280B717A3
:102BD0000240D84B1345F5FF798DC8CB828099C54B
:102BE000371702401C4F5D8D08CF8280B717024017
:102BF000984F1345F5FF798D88CF828099C5371797
:102C000002405C4F5D8D48CF8280B7170240D84F9D
:102C10001345F5FF798DC8CF82808357050037377C
:102C20000140930607C0C207C1836300D504B706FD
:102C30000040630CD502938606406308D502B716A0
:102C40000040138606806302C502938606C0630EA9
:102C5000D50013070740630AE50037570140930684
:102C600007C06304D5006317E50003D7250093F779
:102C7000F7F8D98F37170040630DE50013070740B9
:102C80006309E50093F7F7CF03D76500C207C18357
:102C9000D98F2310F50083D745002316F50283D77B
:102CA00005002314F502B7370140138707C0630EF0
:102CB000E50093870740630AF500B7570140138783
:102CC00007C06304E5006316F50083C78500231879
:102CD000F5028547231AF500828083570502657740
:102CE0001307F7CFC207C183BD9BC207C18323105F
:102CF000F502835705028356450003D88500C207B5
:102D00001396060183568501C18393F7F7FD758FEE
:102D100083D605004182A206558F83D6250042073F
:102D20004183B3E606019206D58FB7360140C2074C
:102D3000138806C0C183630E050193860640630AAB
:102D4000D500B7560140138806C06304050163111E
:102D5000D50483D6A50093F7F7F703D8C5009206EC
:102D6000D58F83D64500C207C183920693F7F7FB40
:102D7000D58FFD769386F63FF18E03D6E500C20728
:102D8000C183336606010A06D18E1396060141827D
:102D90002312C500231CE50003D76500231CE502B0
:102DA0002310F50282808357050091C593E7170031
:102DB0002310F5008280C207C183F99BC207C1833B
:102DC000C5BF8357450491C52167D98F2312F504E8
:102DD0008280C607C583DDBF8357C50009C6DD8D68
:102DE0002316B500828093C5F5FFFD8DD5BF8357AF
:102DF000050091C593E707082310F5008280C207FC
:102E0000C18393F7F7F7C207C183FDB70357850165
:102E1000FD779387F77FF98FA205CD8FC207C18316
:102E2000231CF5008280231CB502828093C5F5FF28
:102E3000C205C1812318B500828083560501F5774C
:102E4000FD17F58F83D66500397122DC06DED58F3C
:102E500003D7C5002318F5008356C500FD77938777
:102E6000379FF58F83D645002A842EC6D58F83D60B
:102E70008500D58F83D6A500D58F2316F5008357FF
:102E80004501C207C18393F7F7CFD98F231AF50005
:102E90006808EFF01FC2B747014093870780B2452B
:102EA000631EF404A2578356C4006547B387E70244
:102EB000C206C186984163D5060406070356C400BE
:102EC0004206B3D7E702130740064186B3D6E702AE
:102ED000B3F7E7029206635706028E07938727032C
:102EE000B3D7E70213F77700B367D700C207C183F0
:102EF0002314F400F250625421618280925765B726
:102F00000A076DBF920793872703B3D7E702BD8BEC
:102F1000D58FE9BF81C98357C5000967D98F2316AB
:102F2000F50082800357C500F977FD17F98FC5BFFB
:102F300093F5F51F2312B5008280035505006D8DB2
:102F40003335A000828083A7418137177A001307A9
:102F50000720B3D7E70293F7F70F2383F184130712
:102F6000803EB387E7022392F1848280B7F700E0C6
:102F7000D8438146799BD8C303C761843306A7022F
:102F800090CBD4CB98431367170398C3D843058BD2
:102F900075DF9843799B98C38280B7F700E0D843E8
:102FA0008146799BD8C303D741843306A70290CBCF
:102FB000D4CB98431367170398C3D843058B75DFA9
:102FC0009843799B98C38280797122D42A841165B1
:102FD0008545110506D6EFF09FC093070020231208
:102FE000F100371501408D473EC44C00E147130501
:102FF00005803EC6EFF0EFF022C837440140B70726
:1030000008000C08130504803ECC02CA231E0100F0
:10301000EFF0BFE2130504808545ED3DB250225428
:1030200045618280011126CAB744014022CC4AC8BA
:103030004EC606CEAE893289014493840480634A29
:103040002401F24062444A85D2444249B2490561B2
:103050008280930500042685CD3565DDB387890020
:103060008385070026850504C205C181EFF05FEC6A
:10307000F9B71387C1811C439386C1893E95636B61
:10308000D500B78600209386068063E5A60008C3B6
:103090003E858280FD57EDBF3708100001117D1875
:1030A0003377B80026CA3378D80093D4450113D3B8
:1030B0004601131E37004EC61357D5010E0893570D
:1030C000D60193F4F47F1373F37F06CE22CC4AC863
:1030D00093D9F50193DEF6013367C701131F35005D
:1030E00033E80701931F3600338E64406380D9199B
:1030F0006356C0136304031CB70680009307F07F78
:103100003368D800638FF4369307800363C0C735F4
:10311000FD4763CDC747130500023305C541B3D74B
:10312000CF01B316A8003399AF00DD8E33392001EB
:10313000B357C80133E926011D8F33092F41B33737
:103140002F013306F7409317860063D4072437070F
:1031500080007D173374E600630C042C2285EF1089
:10316000004E130785FF93070002998FB357F900AC
:103170003316E400D18F3319E9006341972A3305F0
:103180009740130615007D47634DC73813070002AB
:10319000118FB356C9003319E9003397E700558FF3
:1031A000333920013369270133D6C700814493772F
:1031B000790081CF1377F90091476308F70013076F
:1031C0004900333927014A963A899317860063D616
:1031D000071C138514009307F07FCE856304F52048
:1031E000B70780FFFD17F18F9398D7011359390066
:1031F000A607B3E82801B1831375F57F9396C7003E
:103200005205F2406244B182FE05C98ECD8ED24491
:103210004249B2494685B68505618280631E0E0A21
:10322000138314001373E37F63170322B367E7016B
:10323000B368F801639D041A6387074063860844F6
:103240003309FF41B307074133362F013386C740A7
:103250009317860063D6074C3389EF41B307E840E4
:1032600033B62F013386C740F68991B76350C00F3C
:103270006300030CB70680009307F07F3368D80023
:10328000638AF43A9307800363CBC713FD4763DF78
:10329000C73513090EFE93070002B3562801630ACF
:1032A000FE00130900043309C94133192801B3EFA3
:1032B0002F013339F0013369D90031A2B367F80126
:1032C000638A071C9307FEFF638C07389306F07F21
:1032D0006309DE1A3E8E0DBDB3059340639104224F
:1032E000B367E701638707329387F5FF638107447C
:1032F0009306F07F638CD520BE859307800363CC53
:10330000B72AFD4763CFB73C930700028D8F33196F
:10331000F700B356BF00B317FF003369D900B337C6
:10332000F0003357B7003369F9003308E84041AC87
:10333000B367F801638007349307FEFF638A0720B1
:103340009306F07F6308DE2E3E8E2DBF631E0E14A3
:103350009386140093F7E67F63910734B367E70120
:103360006395042C6380073EB367F801638E0730D2
:103370003309FF01B3070701333FE9013386E70152
:103380009317860063D70700B70780FFFD177D8E70
:10339000854493777900E39F07E09317D60193580C
:1033A0003900B3E8F800935736001307F07F638DB8
:1033B000E404B207B18313F5F47FCE8581B5336998
:1033C000F801333920017A99B337E9013386E700F0
:1033D00093178600E3DF07FA85049307F07F63966F
:1033E000F418CE851305F07F8147814801BDC1EBFC
:1033F0006384083A931636009317D8018D82B3E898
:10340000D700F68993573800B3E7F800F9DB814518
:103410001305F07FB70708008148CDB3370680FF5A
:103420007D167D8E93777900998CE39507D8B5B793
:103430004A85EF10C02013078501FD47E3D5E7D289
:10344000130685FFB317C900014905BB3369F801AD
:1034500033392001DDB13309FF41330607413334ED
:103460002F01330486409317840063CD0724B3688B
:103470008900E39308CE8147814981441DBFE398C9
:1034800008F80E059317D7010D81B3E8A7009357ED
:1034900037009DBF0E059317D7010D81B3E8A70034
:1034A000F2849357370011B73305934063820412B7
:1034B000B70680009307F07F558F630DF32E9307B7
:1034C000800363CBA720FD4763C3A72A93070002AD
:1034D000898F3319F700B356AF00B317FF00336974
:1034E000D900B337F0003357A7003369F9003A9891
:1034F0007E99B337F901338607019A84D1BDB706A7
:1035000080009307F07F558FE319F3DE93173600A1
:103510008D839318D801B3E81701F68993573800C3
:10352000E5B5130715FE9306000233D7E700630ADB
:10353000D600930600043386C6403396C70033692D
:10354000C900333920013369E9000146814491B54E
:103550003309FF01B30707013336E9013E9693179C
:1035600086008544E3D707E28944B70780FFFD174B
:10357000F18F1357190013791900336927019398B4
:10358000F70133E9280113D6170015B113090EFE10
:1035900093070002B3562801630AFE0013090004D2
:1035A0003309C94133192801B3EF2F013339F00131
:1035B0003369D90059B63369E701333920013389BA
:1035C0002F41B3B72F013306F8409A84F689A5BE80
:1035D000B367E701638207189307F5FF6384071C4D
:1035E0009306F07F6304D5123E85D1BD9307000298
:1035F000B387C741B316F8003399FF0033D6CF0124
:10360000D18E33392001B357C80133E926013E97E3
:103610005DBB931736008D839318D801B3E817016B
:10362000AE8493573800F68949B3EDC33369F80186
:10363000E31F09DC0E059317D7010D81B368F50070
:1036400093573700D1B36381080E93163600931752
:10365000D8018D82B3E8D700F6899357380091BB23
:103660003309FF41B3070741333F2F013386E74159
:103670008544D1BC0E059317D7010D81B368F500C1
:10368000F2849357370015B30E059317D7010D81B8
:10369000B3E8A7009357370029BB9307F07FE38275
:1036A000F6D43309FF013336E901B3070701B297B6
:1036B0009398F7011359190033E9280113D617001D
:1036C000B684C1B93389EF413307E84033B62F01DF
:1036D0003304C740F68949B43369E701333920011F
:1036E00001BD938705FE93060002B357F700638A76
:1036F000D50093060004B385B6403317B700336F87
:10370000EF003339E0013369F90055BD93173600F6
:103710008D839318D801B3E8170193573800EDB1A2
:10372000B368C900E39708C68147814959B1338915
:10373000EF41B307E84033B62F013386C740F6891F
:10374000854411B4931636009317D8018D82B3E8DF
:10375000D70093573800B1B9931636009317D801A4
:103760008D82B3E8D700AA84935738003DB99307F8
:1037700005FE93060002B357F700630AD5009306CF
:1037800000043385A6403317A700336FEF003339A9
:10379000E0013369F900A9BB81451305F07FB70744
:1037A0000800A9BC3309FF01B30707013336F9014B
:1037B0003E9675B3931636009317D8018D82B3E801
:1037C000D7009357380089B139714AD813D94501C8
:1037D0004ED652D456D29399C50006DE22DC26DAA4
:1037E0005AD05ECE1379F97F2A8A93D9C90093DA29
:1037F000F501630D090E9307F07F6306F918135462
:10380000D5018E09B36934013704800033E489009F
:1038100093143500130919C08149814B13D7460110
:10382000139AC6001377F77FB285135ACA0013DBC9
:10383000F601630B07109307F07F6303F7049357B8
:10384000D6010E0A33EA4701130717C0B7078000F5
:10385000B367FA00931536003A99814833C76A0175
:10386000BD463A851308190063E83617176600004D
:10387000130686868A09B29983A60900B2968286C3
:10388000B367CA001309F97F6399071293E9290006
:1038900081458948E1B701479307F07F3704080065
:1038A00081443204D20731807E075D8C598CA28519
:1038B000F250625426854259D254B259225A925A31
:1038C000025BF24B216182805A853E84AE84C68BB6
:1038D0008947638DFB0E8D47E38FFBFA85472A8767
:1038E000639EFB3881470144814465BF33E4A900EE
:1038F00061C036C632C4638C092A4E85EF0030544D
:103900002246B246AA87130755FF7544938487FF62
:10391000198CB399990033548A0033643401B31479
:103920009A0013D746011309D0C0139AC600137723
:10393000F77F3309F9408149814BB285135ACA0098
:1039400013DBF601E31907EEB367CA00B1C7630FD3
:103950000A22528532C4EF00904E22462A879306EF
:1039600055FFF547930587FF958F331ABA00B35774
:10397000F600B3E74701B315B6003309E940130970
:10398000D9C08148E1BD33E4A90001ECA1498144DB
:103990001309F07F894B59B593E919008145854892
:1039A00075BD4E84AA84B1491309F07F8D4BBDB516
:1039B000914981440149854B95B593E93900D287F6
:1039C0008D4869BD89475685E397FBF02A879307A1
:1039D000F07F01448144F1B5C16E1386FEFF93D69A
:1039E000040113DE0501F18CF18D338695023383DA
:1039F000B6029358060133059E021A95AA98B3821F
:103A0000C60363F36800F692C16F1383FFFF33F5BB
:103A1000670093D30701B3F76800C20733736600EA
:103A20003E933306950293D80801B387A602135F2D
:103A30000601B3849302BE94FA94B38E760263F3C4
:103A4000F400FE9E416A9307FAFF935F0401B37688
:103A5000F400B3F9F4007D8EC1803384D502C2092D
:103A6000338FD401B299CE98B307DE02935E04017E
:103A7000B385BF02AE97BE9E330EFE0363F3BE0056
:103A8000529EC1679385F7FF33F6BE006D8C4206E8
:103A9000229693DE0E01B305D502769E3385AF02E2
:103AA00013D40501B386D302AA96A296B38FF3036B
:103AB00063F3A600BE9F41657D15B3F7A600C2075C
:103AC0006D8DAA97B3855800B3B93501FA97B295B1
:103AD0003384370133B6C500B30EC4013385CE003D
:103AE00033343401B3B7E701C18F33BECE0113D4F1
:103AF00006013336C5003E943366CE00939495009C
:103B000032947E94B3E46400260493567501B33472
:103B10009000DD8193179500CD8C558CDD8C93172B
:103B2000740063DB070093D7140085889316F401B3
:103B3000DD8CD58C058042899307F93F6359F008E5
:103B400093F6740081CE93F6F40011466388C600A4
:103B500093864400B3B496002694B68493167400FA
:103B600063D80600B70700FFFD177D8C9307094057
:103B70009306E07F63CFF60E93D634009314D401FE
:103B80002604D58C318093F7F77F21BB328532C470
:103B9000EF00F02A93065501F1471307050222466C
:103BA000E3D1D7DC6115B317A6008145F9B3EF0067
:103BB000102913075501F145930705022246B24625
:103BC000E3D5E5D461153314AA00814499BB854639
:103BD0009D8EB1E71309E941B3972401B3D4D40012
:103BE00033192401B337F000B3649900DD8C93F7E7
:103BF0007400B356D40081CF93F7F4001146638864
:103C0000C70093874400B3B49700A696BE849397E9
:103C1000860063D8070485470144814459B11306DF
:103C20008003E341D6CC7D46E356D6FA0556B3076A
:103C3000F640930500023356F4006387B60013097B
:103C4000E943B3172401DD8CB3349000D18C93F693
:103C50007400014499CA93F7F40011468146E39237
:103C6000C7FA139496003180F6068D80D58C814773
:103C70000DB99307F07F0144814425B142896DBDA0
:103C80004111370780007D1713D8750126C2935460
:103C900075013373A70093F4F40FB376B7004AC0ED
:103CA0001378F80F1359F50106C622C4FD819A87CF
:103CB00026854A86131E3300939E3600B38804413E
:103CC000630AB90E6350100D630408149307F00FD4
:103CD000638BF414B7070004B3EEFE00ED4763C135
:103CE000172993070002B3871741B397FE00B3D893
:103CF0001E01B337F000B3E7F800B307FE40139797
:103D00005700635E0718370400047D147D8C2285FC
:103D1000EF00F0126D15B317A4006348951A058DD6
:103D20001304150013070002018F3397E7003337A0
:103D3000E000B3D78700D98F814413F7770019C704
:103D400013F7F70091466303D700910713975700C5
:103D5000635B071485041307F00F4A866383E41638
:103D60009A07A58313F5F40FB2402244A6079314D3
:103D7000750113D59700458D7E0692440249518DF9
:103D8000410182806399080A138714001377E70FB3
:103D90006317071463900422630D0E1EE3860EFC66
:103DA000B307DE411397570063500722B387CE4114
:103DB0002E8961B7635C100B630E08089307F00F40
:103DC0006383F406B7070004B3EEFE00ED4763C952
:103DD000171F93070002B3871741B397FE00B3D8AC
:103DE0001E01B337F000B3E7F800F29713975700BE
:103DF0006357070A85041307F00F6384E40CB706C2
:103E0000007E13D71700FD16858B758FD98F35B7B8
:103E1000638D0E08FD18B307DE41E38208EE9307B9
:103E2000F00FE39DF4EA630D030801461305F00F5C
:103E3000B707400015BF33079840EDE863020E1442
:103E40007D17630807189307F00F6319F80E2E8982
:103E50003683D1BF638B0E04FD18B307DE01E38701
:103E600008F89307F00FE393F4F675BF639508081D
:103E7000850413F7E40F6313071263170510630F2C
:103E80000E14E3830EEEB307DE011397570081444F
:103E900063570700370700FC7D17F98F854413F738
:103EA0007700E31F07E813D337009307F00FE38C85
:103EB000F4F693179300A58313F5F40F4A866DB5B6
:103EC0004A861305F00F814745B5370700FC7D177B
:103ED000F98F13F77700898CE31407E6E9B7330409
:103EE000DE419317540063C3070CE31204E201465A
:103EF0000145814795BD33079840ADC49307F00F46
:103F0000E308F8F4B7070004336EFE00ED4763CC16
:103F1000E70C93070002998FB317FE003357EE00AA
:103F2000B337F000D98FF697C284C9B59307F00F65
:103F3000E30FF8F0B7070004336EFE00ED4763C3EC
:103F4000E70893060002998EB316DE00B357EE0021
:103F50003337D000D98FB387FE40C2842E8945B352
:103F6000854761BB630E0E067D17B307DE01C28471
:103F7000E30E07E69307F00FE31AF8F8368365B50A
:103F80003683C2842E8915B7E3040EECE38D0EE868
:103F900069BD638D0E022E86B687F9B39307F00FC5
:103FA000E381F4F2B307DE018583D5BD3384CE41CE
:103FB0002E89B1BBE31C0EFCE3890EE62E8949BDB8
:103FC000854725B5854741BFE39B07EC01468147FF
:103FD00061BBB387CE41C2842E8915B3B68769B35E
:103FE0003683C284D9B585473DBF93567501B7075F
:103FF0008000FD1713D6750193F6F60F1308F00F26
:10400000B3F8A7001357F501ED8F1376F60FFD8176
:1040100063810603630C06018DE211E2B1C3638E76
:1040200008026305B70405451DE78280F5D7795579
:104030008280E39E08FE6309D60211E2EDD7E31405
:10404000B7FEE342D6FE63C7C600E3EE17FD0145A7
:10405000E3FDF8FC01E77D558280F5DD05458280B2
:104060000145E39208FC8280F9DBD1B78146E1BFCC
:10407000797122D4135475014ECE52CC9319950008
:1040800006D626D24AD056CA5AC81374F40F93D90A
:104090009900135AF50169C49307F00F6308F40EF1
:1040A0009397390037070004B3E9E700130414F8C5
:1040B0008144014B13D77501939A95001377F70F3D
:1040C00093DA9A0013D9F50145CF9307F00F630CEB
:1040D000F7028E0A130717F8B7070004B3EAFA00CD
:1040E0003A94014633452A01BD47AA869305140038
:1040F00063E0971017570000130707028A04BA9469
:104100009C40BA9782871304F40F63960A0C93E4D9
:1041100024000946C1BF01451307F00FB70740004F
:10412000B2502254A6075E07A5837E05D98F92540C
:104130000259F249624AD24A424B5D8D4561828002
:10414000CA86D689328B8947630FFB088D47E30403
:10415000FBFC854736856310FB1A01478147C9B7C9
:10416000639D090413D77501939A95001377F70F90
:1041700091440144054B93DA9A0013D9F50131F7C4
:10418000639D0A0093E414000546A9BF63920902E7
:10419000A1441304F00F094B31BF56854D219307FD
:1041A000B5FF098CB39AFA001304A4F801461DBFA9
:1041B000B1441304F00F0D4BF5BD4E852EC64121C1
:1041C0009307B5FF1304A0F8B399F900098C814453
:1041D000014BB245C5B593E434000D4621B789477C
:1041E000D286E315FBF636851307F00F81470DBF26
:1041F00041639306F3FF13D6090193D80A01B3F77D
:10420000D900B3FADA0033885703B389F802135799
:104210000801B30A5603D6994E9733061603637303
:1042200057011A96C167FD17B376F7003378F80087
:10423000C206C2969399660093570701B3393001BD
:10424000E982B2979A07B3E6D900B3E9D70093970A
:10425000490063D9070013D7190093F71900B36910
:10426000F7002E841307F4076350E00493F77900F6
:1042700099C793F7F90091466383D7009109939703
:10428000490063D90700B70700F8FD17B3F9F90033
:10429000130704089307E00F63CBE70493976900C3
:1042A000A5831377F70FADBD8547B386E74011C7E8
:1042B0006D4601478147E345D6E61307E409339786
:1042C000E9003337E000B3D7D900D98F13F777006F
:1042D00019C713F7F70091466303D70091071397A7
:1042E0005700634C07009A07A583014715BD1307C4
:1042F000F00F814735B52E84B5B7054781470DB519
:1043000037068000135775019307F6FF1377F70FF1
:104310009305E007B3F6A7009357F50163FCE500AA
:104320009305D00963FAE500370500801345F5FFD2
:104330003E9582800145828093055009D18E63CDE0
:10434000E500130660093307E64033D7E60033057E
:10435000E040F5F33A8582801307A7F63397E6002D
:10436000FDB7411106C622C426C20DCD9357F541B3
:1043700033C4A7001D8CAA842285D1249307E009A9
:104380003387A74093076009FD8063CCE702A1460D
:104390009377F70F63D5A60061153314A4002604A4
:1043A000258021A0814481470144260413559400AF
:1043B000B2402244DE07FE045D8D458D92444101EA
:1043C00082809307900963DDE7009307B501954666
:1043D000B317F400898E3354D400B337F0005D8CEA
:1043E000954763D6A7009307B5FF3314F400B706CB
:1043F00000FCFD16937774003376D40085C3937761
:10440000F4009145638CB70011069317560063D7EB
:1044100007009307F009758E3387A74013146600D1
:1044200025809377F70F51B7135775011377F70F5F
:1044300041119307170022C426C21314950006C623
:1044400093F7E70F25809354F50185C79357340000
:10445000130707387604B2075207B1831395F401A6
:10446000D98FC98FB240228522449244BE85410132
:10447000828005EB39C42285D922A94763C6A704E7
:104480002D47098F930755013357E4003314F40087
:104490009317C70013079038098FB1831377F77FFD
:1044A0005DBF01CC13573400B7070800D98FB2079E
:1044B0007604B1831307F07F79BF1307F07F81473C
:1044C00059BF0147814741BF130755FF3317E40028
:1044D00001447DBF93D645019397C50093F6F67FBF
:1044E000B183138616008E071357D5011376E67F26
:1044F000FD815D8F9318350035CE138806C893076C
:10450000E00F63DD07018147139597009306F00FD5
:10451000DE062581FE05558D4D8D82806355000B8D
:10452000931765000E07B337F000D98F93D8D801E1
:10453000B3E7170113F777006301071013F7F700CC
:1045400091466303D7009107370700047D8F75C735
:10455000130718001306F00F9376F70FE305C7FA59
:104560009A07A58313959700DE062581FE05558DD4
:104570004D8D8280B367170199EE85CF95479A07D5
:10458000A5831395970093F6F60FDE062581FE05A9
:10459000558D4D8D8280A5DBB707400013959700A0
:1045A0009306F00FDE0681452581FE05558D4D8D64
:1045B00082808147139597008146DE062581FE059E
:1045C000558D4D8D8280A5576348F804F94737060D
:1045D0008000B38707417D45598E6351F5047957B3
:1045E00033070741130500023357E6006388A7002D
:1045F000938626CAB316D600B3E8D800B3371001A5
:10460000D98F13F77700014815FB1397570085469C
:10461000E34807F48146A5B781468DB7938626C83F
:104620003397D8003337E000B316D600B3D8F8007C
:10463000B367D700B3E7F800E9B7C28689B7C167A7
:10464000637EF5029307F00F1307000263ECA700E7
:1046500097570000938747B0AA9703C50700330513
:10466000A74082802181975700009387E7AEAA97E1
:1046700003C5070061473305A7408280B7070001E3
:10468000636EF5006181975700009387E7ACAA97A6
:1046900003C5070021473305A74082804181975712
:1046A0000000938767ABAA9703C50700414733050E
:1046B000A740828039713EDA2ED232D436D63AD82B
:1046C00042DC46DE9387018222CC804326CA06CE96
:1046D000AA8409C41C4C99E32285612B0C44541014
:1046E0002686228536C6EF00D055F2406244D24479
:1046F00021618280011126CA4AC806CE22CC4EC64C
:1047000052C4AA842E8901C51C4D91E39D239C4C63
:10471000804499E32685B12B975700009387C7B54E
:10472000631CF402C0408357C400A18BB1C71C486E
:10473000A1C7FD59294A1C4483450900FD17B1E969
:104740001CC463DE07062286A9452685FD28FD5781
:104750006308F502294535A0975700009387C7B332
:104760006314F4008044C1B7975700009387C7AE25
:10477000E31BF4FAC04445BFA2852685792255D9AA
:104780007D55F2406244D2444249B249224A056111
:1047900082801CC4050963D70700184C63CBE7006F
:1047A000638945011C401387170018C02380B70098
:1047B00059B7228626855128E31F35F7D1B71C400B
:1047C0001387170018C029472380E70061B7938734
:1047D0000182AA8588436FF0FFF11971A2DC86DEA1
:1047E000A6DA3284635B06009307B0081CC17D55CE
:1047F000F6506654D654096182803686930680202E
:104800002EC42ECC231AD100814519C09305F4FF84
:10481000FD572EC82ECEBA862C00231BF100AA8489
:10482000EF005013FD576355F5009307B0089CC087
:1048300061D0A2472380070065BF93870182368736
:10484000B2862E86AA85884349BF011122CC26CA8A
:104850004AC806CE4EC6AA842E89328401C51C4D94
:1048600091E3012997570000938707A16319F40684
:10487000C0401C4C1CC48357C400A18BC9C31C4836
:10488000BDCF1C4808409379F90F1379F90F1D8D9E
:104890005C486346F500A2852685652C2DE51C4401
:1048A0000505FD171CC41C401387170018C0238082
:1048B00037015C486389A7008357C400858B81CB8F
:1048C000A9476316F900A285268561240DEDF24003
:1048D00062444A85D2444249B24905618280975771
:1048E00000009387679B6314F400804459B797577F
:1048F000000093876796E31EF4F6C0449DBFA2852F
:10490000268521203DDD7D59D9B74111938701824C
:1049100026C2844322C44AC006C62A892E8489C47A
:104920009C4C99E32685B126975700009387C7943E
:10493000631CF402C0400317C40093170701C1832E
:1049400093F68700B5EE93F607019DEEA547232069
:10495000F900136707042316E4007D55B240224492
:104960009244024941018280975700009387C79281
:104970006314F4008044C1B7975700009387C78D34
:10498000E31BF4FAC04445BF918B8DC74C5889C9CD
:10499000930744046384F5004A85A923232A04026B
:1049A0008357C4002322040093F7B7FD2316F400B5
:1049B0001C481CC08357C40093E787002316F400EB
:1049C0001C4881EF8357C4001307002093F7072882
:1049D0006385E700A2854A85B5218357C40013F794
:1049E000170005C75C4823240400B307F0401CCC23
:1049F0001C480145A5F78317C40013F7070839DFE2
:104A000093E707042316F40089BF898B014791E3DC
:104A1000584818C4F1BF83D7C500011122CC26CA5B
:104A200006CE4AC84EC613F78700AA842E8471EFBB
:104A3000D841634DE000B841634AE0000145F240CF
:104A40006244D2444249B2490561828058547DD7BC
:104A500003A904009396370123A0040063DD060632
:104A600070488357C400918B99C75C401D8E5C5879
:104A700099C33C401D8E5C540C508146268582971C
:104A8000FD570357C400631DF5009440F54763E8E4
:104A9000D706B70740208507B3D7D700858BA5C3B6
:104AA0001C48232204001CC09317370163D8070059
:104AB000FD576314F5009C4091E368C84C5823A04F
:104AC0002401ADDD930744046384F500268519298C
:104AD000232A0402A5B70C50014685462685029775
:104AE000FD572A86E31FF5F69C40A5DF75476385D1
:104AF000E70059476394E70423A0240181B71367B3
:104B000007042316E4007D551DBF83A90501E38733
:104B100009F203A905008D8B23A035013309394122
:104B2000014791E3D84918C4E35A20F11C540C50B2
:104B3000CA864E86268582976349A0008357C400A3
:104B400093E707042316F4007DBFAA993309A9400F
:104B5000E1BF9C49A5C3011122CC06CE2A8411C510
:104B60001C4D81E72EC63122B2459747000093873E
:104B7000A770639CF5004C408397C5009DC72285B4
:104B80006244F24005616FF01FE997470000938788
:104B9000A7706394F5000C44C5B79747000093874E
:104BA000A76BE39BF5FC4C44C1BFF2406244014556
:104BB0000561828001458280411122C406C62A8493
:104BC0002316B5002317C500232005002322050066
:104BD000232405002322050623280500232A050097
:104BE000232C0500214681451305C505EFB04FE193
:104BF000971700009387E7EC5CD097170000938726
:104C000047EF1CD497170000938787F35CD497175E
:104C10000000938747F600D01CD8B24022444101DF
:104C2000828097050000938505F391AA411126C261
:104C3000130680069384F5FFB384C4024AC02E890C
:104C400022C406C69385440791262A8401CD2320D9
:104C5000050023222501310508C4138684068145F9
:104C6000EFB00FDA2285B24022449244024941015A
:104C700082801C4DA5E7411106C622C4970700009B
:104C8000938767FA1CD5938741829C4323240504AC
:104C900023260504232805046314F50085471CCD4D
:104CA0002A84352848C022851D2808C42285052865
:104CB00048C4484001469145EFF01FF008440546BE
:104CC000A545EFF07FEF48440946C945EFF0DFEE18
:104CD00085471CCCB2402244410182808280411130
:104CE0009387418226C284434AC006C69C4C22C494
:104CF0002A8981E72685EFF0DFF7938484048044D6
:104D0000DC40FD1763D607009C40B9CF8440C5BF87
:104D10000317C40039E7C17785072322040623203F
:104D2000040023220400232404005CC4232804007C
:104D3000232A0400232C0400214681451305C405C1
:104D4000EFB00FCC232A0402232C040223240404F2
:104D5000232604042285B2402244924402494101A0
:104D600082801304840671BF91454A85EFF01FECE1
:104D700088C049FDB1472320F9000144E1BF7971A2
:104D800022D44AD052CC56CA5AC85EC606D626D2BB
:104D90004ECE2A8AAE8A130485040149054BFD5B79
:104DA00009ECB25022544A8592540259F249624A9F
:104DB000D24A424BB24B456182800444832944006D
:104DC000FD1963D409000040E1BF83D7C400637BB1
:104DD000FB008397E40063877701A6855285829A5A
:104DE0003369A90093848406E1BF1971A6DAAE8401
:104DF0008395E500A2DC86DE328463DC050083D780
:104E0000C40023A0060093F7070885E79307004036
:104E10001DA0300836C6EF00905BB246E34105FEA8
:104E20007247BD67F98F7977BA9793B717009CC21D
:104E3000F1BF930700041CC0F6506654D6540145D8
:104E40000961828083D7C500011122CC06CE26CA13
:104E50004AC8898B2E8489CF930774041CC01CC850
:104E600085475CC8F2406244D24442490561828071
:104E700074003000AA84EFF05FF7A2452A892685E6
:104E8000312201ED8317C40013F7072061FFF19B66
:104E900093E727002316F400C1B797070000938714
:104EA00087D89CD48357C40008C008C893E7070874
:104EB0002316F400A2475CC8B24791CF8315E400E3
:104EC0002685EF00705301C98357C400F19B93E717
:104ED00017002316F4008357C4003369F900231622
:104EE000240149B7DDC183A7C5FF411122C406C60D
:104EF00026C21384C5FF63D307003E94AA84EF0043
:104F00009066938781849C4381EF2322040023A42D
:104F100081842244B2402685924441016F00D064CE
:104F2000637EF40014403307D4006396E70098438F
:104F3000DC43369718C05CC0D9BFBA87D84319C3C1
:104F4000E37DE4FE94433386D700631F8600104060
:104F5000B29694C33386D700E31DC7FA1043584373
:104F6000B29694C3D8C375B76375C400B1479CC0EB
:104F70004DB71040B306C4006316D700144358431E
:104F8000B29614C058C0C0C369B78280011126CA46
:104F900093843500F19806CE22CC4AC84EC6A104AF
:104FA000B14763F5F404B14463E4B4042A89EF0023
:104FB000905B9387818498433A8429E49387C184E2
:104FC0009C4399E781454A85EF00D02C23A6A18414
:104FD000A6854A85EF00102CFD5963193507B147A6
:104FE0002320F9004A85EF00305829A0E3DE04FAB7
:104FF000B1471CC10145F2406244D2444249B24922
:10500000056182801C40858F63CF0702AD4663F641
:10501000F6001CC03E9404C031A05C4063138702BC
:1050200023A4F1844A85EF0030541305B40093079C
:10503000440061993307F5405DDF3A94898F1CC0C5
:105040005DBF5CC3C5B72287404085BF13043500F0
:105050007198E30285FCB305A4404A85EF009023D4
:10506000E31B35FBADBF01114AC803A9850022CC63
:1050700052C45AC006CE26CA4EC656C22E84328BA1
:10508000368A63EE260983D7C50013F7074851C750
:1050900004408C495848AA8AB389B4408D44B384EB
:1050A000E4020947B3C4E402138716004E9763F382
:1050B000E400BA8493F70740D9C3A6855685EFF07C
:1050C000FFEC2A890DE5B14723A0FA008357C400FD
:1050D0007D5593E707042316F400F2406244D2445E
:1050E0004249B249224A924A024B056182800C48E9
:1050F0004E86EF0050378357C40093F7F7B793E716
:1051000007082316F4002328240144C84E99B384C9
:1051100034412320240104C4528963732A01528933
:1051200008404A86DA85EF00703F1C440145B3878A
:1051300027411CC41C403E992320240179BF2686A8
:105140005685EF0090422A895DFD0C485685EFF0A8
:105150007FD995BF83D7C500717126D34AD14ECF71
:1051600006D722D552CD56CB5AC95EC762C566C393
:1051700093F70708AA892E89B284B9C39C49A9E389
:105180009305000436C6EFF07FE02320A900232812
:10519000A900B24615E1B14723A0F9007D55BA50E8
:1051A0002A549A540A59FA496A4ADA4A4A4BBA4B7B
:1051B0002A4C9A4C4D61828093070004232AF900FF
:1051C00093070002A30CF1029307000302DA230DF8
:1051D000F10236CE930B5002974A0000938ACA0D13
:1051E000054C294B26848347040099C3639D7709A6
:1051F000B30C9440638E0C00E6862686CA854E85E5
:10520000EFF07FE6FD576304F51AD256E69636DADC
:1052100083470400638D0718FD579304140002D0E0
:1052200002D63ED202D4A301010682DC83C504006B
:1052300015465685EF00902113841400825731E5FE
:1052400013F7070109C713070002A301E10613F7CB
:10525000870009C71307B002A301E10683C6040053
:105260001307A002638BE602B257268481462546C7
:105270000347040093051400130707FD6374E60653
:105280008DC63ED61DA00504B9BF33055541331563
:10529000AC00C98F3ED0A28451BF7247930647002D
:1052A000184336CE634907023AD6034704009307F2
:1052B000E002631FF704034714009307A002631B77
:1052C000F702F2470904138747009C433ACE63C1B3
:1052D00007023ED235A83307E04093E727003AD6CD
:1052E0003ED0E1B7B387670385462E84BA9749B7A6
:1052F000FD57C5B7050402D28146814725460347BD
:10530000040093051400130707FD6378E606F1F225
:10531000834504000D4617450000130565FAEF00AC
:10532000F01211CD97470000938787F91D8D9307E1
:105330000004B397A700025505045D8D2AD083456C
:1053400004001946174500001305C5F7930414001F
:10535000230CB102EF00900F25C597B7FFFF93878D
:1053600067CA95E70257F2471377071009CF9107ED
:105370003ECED257D2973EDAB5B5B387670385469E
:105380002E84BA97ADBF9D07E19BA107D5B77808DA
:1053900097060000938666CD4A860C104E859700CE
:1053A0000000E7000000FD572A8AE314F5FC83574C
:1053B000C9007D5593F70704E39307DE5255C5B343
:1053C000780897060000938646CA4A860C104E85D8
:1053D0002929D1BF1C46FD171CC663DA0700184EE9
:1053E00063C5E700A9476394F5006FF00FC61C4240
:1053F0002E851387170018C22380B7008280011101
:1054000022CC26CA4AC84EC652C406CE2A89AE89C4
:105410003284B304D6007D5A63149400014511A868
:10542000834504004E864A85EFF0DFFA0504E31554
:1054300045FFF2406244D2444249B249224A0561E2
:105440008280357122CD26CB4AC94EC706CF52C5C0
:1054500056C35AC1DEDEE2DCE6DAAA89AE843289BE
:10546000368409C51C4D99E3EFF0BF8097470000D3
:10547000938787E0639CF40C83A4490083D7C4001E
:10548000A18BFDC79C48EDC793070002A304F1025E
:105490009307000302D22305F10222C6930B5002A8
:1054A000974A0000938A4AE1054C294B4A84834776
:1054B000040099C36391770FB30C2441638E0C00F1
:1054C000E6864A86A6854E85EFF07FF3FD57630694
:1054D000F51E9256E69636D283470400638F071C6A
:1054E000FD571309140002C802CE3ECA02CCA3091C
:1054F000010482D48345090015465685812F130483
:105500001900C24759E913F7070109C71307000239
:10551000A309E10413F7870009C71307B002A30921
:10552000E104834609001307A0026380E608F247FE
:105530004A84814625460347040093051400130757
:1055400007FD6379E60AB5CA3ECE85A897470000F5
:10555000938787D46395F40083A4890005B79747A0
:105560000000938767CFE39BF4F083A4C90039B7A9
:10557000A6854E85EFF06FB901D97D55FA406A4492
:10558000DA444A49BA492A4A9A4A0A4BF65B665CA7
:10559000D65C0D618280050419BF33055541331572
:1055A000AC00C98F3EC82289B1B732479306470085
:1055B000184336C6634907023ACE034704009307EF
:1055C000E002631FF704034714009307A002631B64
:1055D000F702B2470904138747009C433AC663C1E8
:1055E00007023ECA35A83307E04093E727003ACECA
:1055F0003EC8E1B7B387670385462E84BA9725BFB7
:10560000FD57C5B7050402CA8146814725460347B1
:10561000040093051400130707FD6376E606F1F214
:10562000834504000D4617450000130565C9392D53
:1056300011CD974700009387A7C81D8D93070004DD
:10564000B397A700424505045D8D2AC88345040031
:105650001946174500001305E5C613091400230475
:10566000B102ED233DC197B7FFFF9387A79995E757
:105670004247B2471377071009CF91073EC69257AA
:10568000D2973ED225B5B387670385462E84BA9755
:10569000BDBF9D07E19BA107D5B778009706000025
:1056A000938626D626860C084E8597000000E700D4
:1056B0000000FD572A8AE314F5FC83D7C40093F752
:1056C0000704E39C07EA125555BD780097060000D1
:1056D000938626D326860C084E85012AD9BF797178
:1056E00056CA9C49BA8A984522D426D24ECE52CC6C
:1056F00006D64AD05AC85EC6AA892E84B284368A93
:1057000063D3E700BA879CC00347340419C38507F5
:105710009CC01C4093F7070281C79C4089079CC02E
:105720000329040013796900631A0900130B94011B
:10573000FD5B5C449840998F634CF9041C408346A0
:10574000340493F70702B336D000A5EB13063404F4
:10575000D2854E85829AFD576303F5041C4011469D
:105760009840998B544481446397C700B384E640C2
:1057700063D3040081441C4418486354F700998F94
:10578000BE94014969047D5B63982405014509A81D
:1057900085465A86D2854E85829A631E75017D554F
:1057A000B250225492540259F249624AD24A424BB0
:1057B000B24B456182800509ADBF3307D4001306A3
:1057C0000003A301C7040347540493871600A2975C
:1057D0008906A381E7049DBF85462286D2854E8532
:1057E000829AE30E65FB050945B7797122D426D26A
:1057F0004AD04ECE06D652CC56CA5AC8B68983C6AF
:105800008501930790063289AA842E841386350475
:10581000638DF60263E2D706930780056388F61866
:1058200063EDD7006381062293073004638EF60A86
:10583000930A24042301D404C9A093073006638586
:10584000F60A93074006E395F6FE1C40084393F6DC
:10585000070893054500C5C61C410CC363D8070063
:105860001307D002B307F040A301E40497460000F9
:105870009386C6A529476DA8930700076384F6168B
:1058800063E5D7029307E006638BF6189307F006EB
:10589000E390F6FA0C401C4313F805081385470003
:1058A0006307080608C39C438DA893075007E3834A
:1058B000F6FE93078007638BF61293073007E39990
:1058C000F6F61C43D04181459386470014C383AA52
:1058D00007005685A52E01C53305554148C05C40DB
:1058E0001CC8A301040471A81C43930A24049386D2
:1058F00047009C4314C32301F4048547D5B793F6AE
:1059000007041C410CC3B9DAC207C18781BF93F5F4
:10591000050408C3C9D983D707001307F0066388B5
:10592000E60E974600009386669A2947A301040471
:105930004C400CC463C5050008406D9908C099E34C
:10594000B28A91CDB28AB3F5E702FD1AB69583C546
:1059500005002380BA00B3D5E70263F0E70CA14746
:10596000631EF7001C40858B91CB58401C4863C7D1
:10597000E70093070003A38FFAFEFD1A3306564192
:1059800010C84E87CA867000A2852685EFF03FD5E5
:105990007D5A631E450B7D55B250225492540259D4
:1059A000F249624AD24A424B45618280A382D504C1
:1059B00097460000938686910C40084313F805082B
:1059C0001C411105630D080208C313F7150001C738
:1059D00093E505020CC04147B1FB0C4093F5F5FD82
:1059E0000CC0A9B79C4193E707029CC193078007AD
:1059F000A302F404974600009386868E75BF13F8C1
:105A0000050408C3E30308FCC207C1837DBF9746B2
:105A100000009386A68B214711BFAE872DB7944116
:105A20001C43CC4913F80608138547006306080099
:105A300008C39C438CC301A808C393F606049C4387
:105A4000F5DA2390B70023280400B28A1DBF14485A
:105A50005686CA8526858299E30F45F31C40898BBB
:105A60008DE7B2474844E359F5F23E8535B78546A0
:105A70005686CA8526858299E30F65F1050A5C443E
:105A80003247998FE345FAFEE9BF014A930A940130
:105A90007D5BF5B7411122C42A842E8523AC018891
:105AA00006C6EFD00FDDFD576317F5009387818998
:105AB0009C4391C31CC0B2402244410182804111E9
:105AC00022C42E848395E50006C6E52C63490500B3
:105AD0007C48AA977CC8B240224441018280835707
