:100000006F20802213000000130000001300000086
:100010001300000013000000130000001300000094
:100020001300000013000000130000001300000084
:08003000130000007300100032
:100038000000000000000000A8020000AC02000060
:10004800000000006E210000000000000000000019
:100058007021000072210000000000000000000074
:10006800742100000000000076210000000000005C
:10007800782100007A2100007C2100007E21000008
:100088008021000082210000C603000086210000B4
:10009800882100008A2100008C2100008E210000A8
:1000A8009021000092210000942100009621000078
:1000B800982100009A2100009C2100009E21000048
:1000C800A0210000A2210000A4210000A621000018
:1000D800A8210000AA210000AC210000AE210000E8
:1000E8000C210000B2210000B4210000B62100005C
:1000F800B8210000BA210000BC210000BE21000088
:10010800C0210000C2210000C4210000C621000057
:10011800C8210000CA210000CC210000CE21000027
:10012800D0210000D2210000D4210000D6210000F7
:10013800D8210000DA210000DC210000DE210000C7
:10014800E0210000E22100003421000052210000DB
:10015800E8210000EA210000EC210000EE21000067
:10016800F0210000F2210000F4210000F621000037
:10017800F8210000FA210000FC210000FE21000007
:10018800002200000222000046140000062200009F
:10019800082200000A2200000C2200000E220000A3
:1001A8001022000012220000142200001622000073
:1001B800182200001A2200001C2200001E22000043
:1001C8002022000022220000242200002622000013
:1001D8000000000000000000000000000000000017
:1001E8000000000000000000000000000000000007
:0801F8000000000000000000FF
:100200003D432A876373C3029377F700BDEFADE5E3
:10021000937606FF3D8ABA960CC34CC30CC74CC7F5
:100220004107E36BD7FE11E28280B306C3408A0622
:100230009702000096966780A6002307B700A306E2
:10024000B7002306B700A305B7002305B700A30432
:10025000B7002304B700A303B7002303B700A3022A
:10026000B7002302B700A301B7002301B700A30022
:10027000B7002300B700828093F5F50F93968500B1
:10028000D58D93960501D58D61B79396270097027A
:10029000000096968682E78086FA9680C1171D8FA9
:1002A0003E96E374C3F8A5B77300203001A05D71DA
:1002B0008545154586C6A2C4A6C2CAC04EDE02CA7E
:1002C00002CC02CE02D002D202D402D602C602C8AA
:1002D000EF203001371401408547231AF1004C0804
:1002E00093078004130504803ECEEF204030814503
:1002F0000145EF20A03D8544A147081026D03ED4FB
:1003000026D602D2EF20E019930760112316F100E0
:10031000680089472307F10026C8EF20405E854525
:1003200013050004EF20E07BB72401408967C14931
:100330000D494C0813850480231AF1004ECE4ACC97
:10034000EF20E02AE177231AF1004C08914713854A
:1003500004803ECEEF20A02913850480A965EF20FC
:100360000036854513050002EF20A0779307004073
:100370004C0813050440231AF1004ECE4ACCEF205E
:1003800000271305044093050040EF204033B6409A
:10039000264496440649F25961618280411122C483
:1003A0003724014089651305048006C6EF20E0303C
:1003B0005145EF20F043130504802244B240896583
:1003C00041016F20C02F4111054522C6EF200014C6
:1003D00013054006EF20B044375400001305447F56
:1003E000EF00F06A65DD03C7118315C3238F018217
:1003F00023880182A388018205472389E18223A6FD
:1004000001C823A401C823AC01C623AE01C83244ED
:10041000410173002030797122D426D22E84AA841F
:100420008545214506D6EF20C06B85453705400040
:10043000EF20006D8567938707C02312F100371501
:100440000140F1473EC64C008D47130505C03EC430
:10045000EF20E019B70700403ECA231C8100930734
:10046000004037640040231DF1000C08916713051C
:100470000480231EF10026C8EF2000281305048005
:100480008545EF200039130504808545EF20E03DC8
:10049000B2502254925445618280011122CC3764BB
:1004A00000404AC84EC62E89AA8985451305048096
:1004B00006CE26CA52C4EF20403B13050480854572
:1004C00037040300B7640040EF2060360504138A48
:1004D0000480A2855285EF20603D65DD1385048090
:1004E00001469305000DB704070037640040EF2074
:1004F000A03A9384240813040480A6852285EF2063
:10050000E03A65DD37040010B764004013040408C6
:10051000138A0480A2855285EF20E03A65DD1385B9
:100520000480CE85B704070037640040EF20C03553
:100530009384440813040480A6852285EF200037A5
:1005400065DDB70400103764004093840408930904
:100550000480A6854E85EF20003765DDCA8513052A
:100560000480EF206032130504808545EF20002EC3
:10057000F2406244D2444249B249224A01450561EF
:10058000828093153500A384A18293F5850F6D4574
:1005900029B7931535002384A18293F5850F714502
:1005A000EDBD9307B00B854563E5A70293071006E1
:1005B000894563E0A702930790028D4563EBA7008E
:1005C000CD47914563E7A700A547954563E3A7009D
:1005D00099456945D9B59147AA856373F500914559
:1005E0001397050141839307803E63F4E700930569
:1005F000803EC205C1819307803EB3C5B702654501
:10060000FD1593F5F50F51BD011122CC3764004063
:100610004AC885452A891305048006CE26CA4EC6D7
:10062000EF20A02413050480854537040300B76438
:100630000040EF20C01F050493890480A2854E85E9
:10064000EF20C02665DD1385048001469305000D6B
:1006500037040700B7640040EF2000241304240887
:1006600093890480A2854E85EF20402465DDCA85EC
:100670001385048037040700B7640040EF20C020D2
:100680001304440813890480A2854A85EF200022C0
:1006900065DD13850480854537040300B764004099
:1006A000EF20E018050413890480A2854A85EF2015
:1006B000E01F65DD1385048005469305100DB70422
:1006C000030037640040EF20201D890413040480D8
:1006D000A6852285EF20801D65DDB70400103764F4
:1006E00000409384040413090480A6854A85EF2002
:1006F000801D65DD13050480EF206019AA848545FF
:1007000013050480EF208014F2406244268542499C
:10071000D244B24905618280616541118945130562
:10072000056A06C6CD39930500081305B006B53332
:100730001305401FEF20B00E81451305B006B13BF5
:100740000D4581350D45B1351305803E69351305DD
:10075000401F813D81451305800381338145130589
:10076000A006253B814513053002053B9305000893
:10077000130570031D3313055007793513078006E1
:100780008547631BE50085451305B0063933814570
:100790001305C00619338147B2403E85410182806E
:1007A00013578500B70702602380E7001375F50F24
:1007B0002380A7008280B707026083C7070041112A
:1007C00093F7F70FA307F1000345F1004101828081
:1007D00035711306C0038145C80006CF22CD26CB54
:1007E0004AC94EC752C556C302C0930AC10002C2CD
:1007F00002C439347146814556851934130A810281
:10080000714681455285ED3A854513050010EF206C
:10081000602B854513058006EF20A02CB7140140FE
:10082000F1770D44E149938737738A851385044036
:100830002310F1004EC422C2EF10705B3725014037
:10084000930700F88A85130505802310F1004EC434
:1008500022C2EF10D0598A85138504400569231000
:1008600021014EC422C2EF109058C1478A851385DA
:100870000440130909803EC42310210122C20569E6
:10088000EF10F0569305098013850440EF10306394
:1008900085473EC6BD473ECAC800916722D8CAD424
:1008A000BED8D6DCD2DE02C802CC02CE02D002D242
:1008B00002D402D602DA02DC02DE82C082C282C424
:1008C00082C682C882CA82CE82CC82D082D282D6AE
:1008D00082DAEF10504485450145EF10704FFA4021
:1008E0006A44DA444A49BA492A4A9A4A0D618280DE
:1008F0000565397185451305958006DE22DCEF20FC
:10090000401E9167231AF10037150140E1473ECEA2
:100910004C088D47130505C03ECCEF10504D3734C1
:1009200001409307F0083EC42C00930740061305CE
:1009300004C03EC6EF20E031930700062310F10209
:10094000B707320091070C10130504C03ED22315DF
:100950000102EF20003C130504C08545EF20E0496B
:10096000130504C08145EF20E04D130504C0854503
:10097000EF20604B130504C08545EF204046F25040
:10098000625421618280930740069375F50F63F4EA
:10099000A7009305400637350140130505C06F20B9
:1009A000604C93578500135755001377077E93F7D4
:1009B00007800D81D98F7D895D8D420541818280BF
:1009C00023950182B70700202398B7068280B707D6
:1009D00002601307A002A38FE7FE13578500238050
:1009E000E7001375F50F2380A700135786002380B7
:1009F000E7001376F60F2380C7001307B002A38F1A
:100A0000E7FE13D785002380E70093F5F50F2380D9
:100A1000B70013D786002380E70093F6F60F2380F4
:100A2000D7001307C002A38FE7FE8280B7070260DA
:100A30001307A002A38FE7FE135785002380E7006A
:100A40001375F50F2380A700135786002380E70056
:100A50001376F60F2380C7001307B002A38FE7FEBB
:100A600013D785002380E70093F5F50F2380B700A7
:100A700013D786002380E70093F6F60F2380D70074
:100A80001307E002A38FE7FE8280411122C426C231
:100A90009306F00E935485001374F50F1306F00EB1
:100AA0008145014506C625371307000FB7060260CA
:100AB0009307000FFD1723809600C207238086004E
:100AC000C183EDFB7D17420741837DF3B240224491
:100AD000924441018280411106C622C426C2093DCA
:100AE000C539370402609147A30FF4FEE931E131C3
:100AF000D931D13113052003EF20605293076003F1
:100B0000A30FF4FE230004001306A003A30FC4FEEA
:100B100095472300F400930720FBA30FF4FEB14692
:100B20002300D4002300D4002300040093073003E3
:100B30002300F4002300F400130770FBA30FE4FE6E
:100B4000230004001307B0FBA30FE4FE1303F0031C
:100B500023006400130700FCA30FE4FE1307C00288
:100B60002300E400130720FCA30FE4FE0547230045
:100B7000E400130730FCA30FE4FEB5482300140182
:100B8000130740FCA30FE4FE130700022300E40058
:100B9000130760FCA30FE4FE0D472300E400930558
:100BA00000FDA30FB4FE930540FA2300B4009305A3
:100BB00010FA2300B4008155A30FB4FE415823005E
:100BC00004012300E400A5452300B4002300E40051
:100BD00041452300E4009305D0022300A400230034
:100BE000B400130730042300E40023006400230052
:100BF000F4002300140139472300E4009304900219
:100C00002300940093082003230014018558A30FA8
:100C100014FF230004012300D4002300A4002300B8
:100C2000E4002300E40029472300E4002300B4008B
:100C30002300F400930750042300F4002300C400B1
:100C4000D1472300F400E5472300F4009307100385
:100C50002300F400930770032300F40093071002AD
:100C6000A30FF4FEC547A30FF4FE13054006EF20C3
:100C7000003B0145193DA30F94FEB240224492442B
:100C80004101828013D816009307000F3388074173
:100C9000636BA836958F63E8B7361301019C232C4C
:100CA0008162232A9162232821632326316301165E
:100CB000232E116223244163232251632320616385
:100CC000232E7161232C8161232A91612328A16144
:100CD0002326B161C147BA89AE842A841379F60FFD
:100CE0006390F610130A7400938AF4001306001838
:100CF00081450A85420AC20AEFF08FD0135A0A01D1
:100D000093DA0A01638B0908D686A6855286228566
:100D1000996A753912098144938A0A88E14BB70CA4
:100D20000020414B33847403B3079900D69703CD59
:100D30000700214A0A9493178D01E18763D10708C0
:100D400003D50C077D1A420A060D135A0A01893C85
:100D5000137DFD0F0D04E3100AFE8504E39464FD8A
:100D60008320C163032481638324416303290163D6
:100D70008329C162032A8162832A4162032B0162B3
:100D8000832BC161032C8161832C4161032D01619F
:100D9000832DC160130101648280D6865286A685A8
:100DA00022856931093C014B930B00182934B307A4
:100DB00061012380A700050BE31A7BFFB1B76385B0
:100DC000090003D5A182BDBF834704000345140079
:100DD000C2072205C98F034524005D8DD9369DB712
:100DE000E1476395F610930AB400138A7401130661
:100DF000003681450A85C20A420AEFF06FC093DAD5
:100E00000A01135A0A0163820908A685D28656860A
:100E10002285753E930700183309F902196C8A84FC
:100E2000814C130C0CE6B70D002013593900139BAD
:100E30000C0193070003135B0B01E383FCF2330700
:100E400099016297137B1B00834A0700A14B630340
:100E50000B00914BC20B2684014A93DB0B011397C5
:100E60008A0161876357070403D50D07050A420A03
:100E7000860A135A0A01EFF0BF9293FAFA0F0D0493
:100E8000E36F7AFD850CC9045DB7D2865686A685C8
:100E90002285693EEFF03F92014B930B0036EFF055
:100EA0009F91B30761012380A700050BE3197BFF26
:100EB000A9BF6385090003D5A1824DBF631E0B0046
:100EC000034704000345140042072205498F0345E8
:100ED0002400598DF93459BF034764000345740059
:100EE00042072205498F03458400E5B793070002B6
:100EF0006399F60C130AF400938AF4011306006058
:100F000081450A85420AC20AEFF08FAF135A0A01DF
:100F100093DA0A0163810906D686A6855286228560
:100F20009D6A75341A098144938A0A00E14BB70C13
:100F30000020130B000433847403B3079900D69781
:100F400003CD0700214A0A9493178D01E18763D8E6
:100F5000070403D50C077D1A420A060D135A0A012D
:100F6000EFF01F84137DFD0F0D04E31F0AFC8504C1
:100F7000E39364FDF5B3D6865286A68522857D343B
:100F8000EFF07F83014B930B0060EFF0DF82B3073C
:100F900061012380A700050BE3197BFFB5BF6385C3
:100FA000090003D5A18245BF83470400034514000F
:100FB000C2072205C98F034524005D8DEFF07F9E97
:100FC00059BF032481638320C163832441630329C0
:100FD00001638329C162032A8162832A4162032B50
:100FE0000162832BC161032C8161832C4161032D3C
:100FF0000161832DC1603765000013054581130130
:1010000001646F3080068280557126DB4AD94ED745
:10101000AA84B2892E89130600088145080822DDBA
:101020005ECF3A84BEC306DF52D556D35AD162CDC5
:10103000B68BC2C5C6C7EFF0AF9C13F779FFC147A7
:10104000630DF700930700026389F900376500001C
:10105000CE8513050586EF304001D4012286930525
:101060004006080836C6EF30A01813D719009307BA
:10107000000F131B0701416A338CE740135B0B0120
:101080000008B38A3741130A0A808347040089EFB6
:10109000FA506A54DA544A59BA592A5A9A5A0A5B87
:1010A000FA4B6A4C6961828063779C004E994209D1
:1010B00013590901814463F72A015285EFF0FF9C1F
:1010C00001498144034604002685DA945E87CE8672
:1010D000CA85C204453EC180050445BF7971854576
:1010E0001305000806D622D4EF109021854541450E
:1010F000EF10301F91472312F1008D473EC44C0082
:10110000E147371501403EC6EF10604EA14723125C
:10111000F1004C0093078004371501403EC6EF10E4
:10112000004DF16737240040938707203EC80C0824
:10113000B7070C00130504C03ECC02CA231E0100F1
:10114000EF1090563705024085451305054AEF100C
:101150008030130504C08545EF10B062B2502254B0
:101160004561828039718545094506DE22DC26DA33
:1011700037040240EF10101513050449EF106013F7
:101180009387C1803EC4C1473EC6B7240040930741
:1011900000084C00938444C03ECC130504498D677D
:1011A0003ED426C202C802CA02CE02D002D202D661
:1011B000EF10E0261305044AEF10A00F93878185F6
:1011C0003EC4930700403EC84C009307000213053D
:1011D000044A26C202C63ED2EF106024F250625486
:1011E000D2542161828001118545114506CE22CC61
:1011F000EF10300F85454145EF10B00E896723127F
:10120000F10041448D474C00371501403EC422C6D1
:10121000EF10E03D37150140930700084C0013051F
:10122000058022C62312F100EF10603CF2406244B8
:1012300005618280411122C4370402404AC02A89D4
:101240001305044926C206C6AE84EF10402215EDF0
:10125000370500200905EF100022130504498145D8
:10126000EF10601F1304044923262401A68522855C
:10127000EF10A01F22858545EF10E01D0545B24007
:10128000224492440249410182800145CDBF8145FB
:10129000B307B5008387070091E369BF8505C205E1
:1012A000C181FDB739718545154506DE22DC02CACC
:1012B00002CC02CE02D002D202D402D602C602C8AA
:1012C000EF103002854737150140231AF1004C0812
:1012D00093078004130505803ECEEF104031814511
:1012E0000145EF10A03E0544A147081022D03ED48E
:1012F00022D602D2EF10E01A930760112316F100F4
:101300006800894722C82307F100EF10405FF250C0
:10131000625421618280397126DA8545AA840945A3
:1013200006DE22DCEF10007A370402401305844504
:10133000EF003078B70702603EC4930700043ECA4E
:1013400085673ED44C0091671305844526C202C6CA
:1013500002C802CC02CE02D002D23ED6EF10200C40
:10136000F2506254D2542161828001118545096591
:1013700006CE22CCEF1000753704055083470400D9
:10138000280093F7F70C2300F4008347040093E749
:1013900027012300F4008347140093F7970FA3005D
:1013A000F4009307000F2312F4009307003C23136B
:1013B000F40083A741801CC483A781805CC4834759
:1013C000140093F7F703A300F4008347140093F786
:1013D000F70FA300F4008347240093E707012301DC
:1013E000F4008347240093E787002301F400834738
:1013F000240093E747002301F4008347240093E788
:1014000027002301F4008347240093E717002301FA
:10141000F400930760052314F10085473EC62305B9
:101420000100EF10C04D8347140093E71700A3009D
:10143000F4008347040093E717002300F400F24010
:10144000624405618280411122C626C4B707055057
:1014500003C70701098B35CF03C707011377D70FE0
:101460002388E7009387C1829843058B6307070EA3
:10147000984337050240814505071305854598C304
:10148000EF00707D81479306001E93844180904059
:101490001397170032973306F74003570700850765
:1014A00009832300E600E392D7FE370402401305C8
:1014B00084459305001EEF00507B9C401305844536
:1014C00085451CC5EF0030799387818398430507D4
:1014D00098C3B707055003C70701118B19CB03C782
:1014E00007011377B70F2388E70023A6018223ACF7
:1014F0000182B707055003C70701058B01CF03C75A
:1015000007011377E70F2388E70093874183984308
:10151000050798C3B707055003C70701418B19C7D3
:1015200003C707011377F70E2388E700B7070550B5
:1015300003C70701218B09CF03C7070137850000C7
:10154000130505781377770F2388E700EF20904382
:101550003244A244410173002030984337050240D1
:10156000814505071305854598C3EF00D06E814777
:101570009306001E93848180904013971700329742
:101580003306F74003570700850709832300E60069
:10159000E392D7FE19BF011122CC26CA41648964A7
:1015A0004AC84EC606CE7D149384348E3789000017
:1015B000B7890000C92B0DED9306F00E1306F00E4F
:1015C00093058007EFF0AFC013054006EF103025FC
:1015D000EF00C07513054006EF10702403A541808D
:1015E0001D3B6244F240D2444249B2490561B5BB59
:1015F000A2852685EFF0CFBC1307097C854661469E
:10160000930520032945EFF03FA01305401FEF107D
:101610001021A2852685EFF0AFBA1387C97C8546D5
:101620006146930520032945EFF01F9E61B7011124
:10163000094506CE22CC26CA4AC84EC652C4EF106F
:10164000A02BEF109018716513050520EF101020E6
:10165000371901409305004013050940EF10E005DC
:1016600003A40181B7470F00938707243354F40282
:10167000EFF06FC613054006EF10701A1305B004A3
:10168000EFF06FB0854923893183EFF0BFADEFF004
:10169000FFA43725004005469305000C130505C03F
:1016A000EF10F00FEFF03FB41305098001469305EA
:1016B0000008EF1000010546896537150140EF105D
:1016C00040001305803EEF1090158964416A138530
:1016D000348E9305FAFFEFF0AFAE378700001307A3
:1016E000C7788546614681452945EFF0FF9113850E
:1016F000348E9305FAFFEFF0AFAC37870000130785
:10170000077A85464146930540062945EFF0DF8F6D
:101710001385348E9305FAFFEFF08FAA3787000008
:101720001307477B854641469305C0032945EFF0E3
:10173000BF8DEFE07FFE0945EFE0BFE40D45EFE030
:101740005FE51305803EEFE01FE91305401FEFE062
:101750005FE5A38E31837D1423A601C84204238E46
:1017600031834180EFE0BFB4A2851305703EEF00E6
:101770002075EF0090002165A28513054523EF0039
:10178000C079EF00F001930570041305703EEF007F
:10179000206B9384348E130909802945EF1050057E
:1017A00026858145EFF0CFA10546930500084A85BF
:1017B000EF003071EFF01FAFF93BEF00300313057E
:1017C0004006EF10D005D1BFB717014003A747C0AF
:1017D000FD769386F60F758F23A2E7C003A747C057
:1017E000C576FD161367073023A2E7C003A747C0DD
:1017F000758F23A2E7C003A747C08D66558F23A22C
:10180000E7C01307004023A8E7C005671307078058
:1018100023A8E7C08280411126C2856406C622C47F
:101820004AC03714014093840480232894C01309CC
:101830000040232824C113052003EF10607B13050B
:101840002003232A94C0EF10A07AB240232A24C197
:1018500022449244024941018280411126C285649A
:1018600006C622C49384048037140140232A94C0FE
:1018700013052003EF10C077930700402328F4C01E
:1018800013052003EF10C076232894C02244B240F1
:1018900092441305200341016F108075411126C247
:1018A000856422C493840480371401401305200307
:1018B00006C64AC0EF10C07313090040232894C025
:1018C000232824C113052003EF1080721305200381
:1018D000232A24C1EF10C071232A94C02244B240AD
:1018E000924402491305200341016F1060700111F9
:1018F00052C4056A26CA4AC84EC656C206CE22CC73
:101900002A89A144B71A0140130A0A8093090040AA
:1019100093178901E18713870AC063D80708232832
:10192000470113052003EF10A06C1305200323A823
:101930003AC1FD140609EF10A06B93F4F40F23AA2B
:101940003AC11379F90FE9F483A74AC0C574FD14AD
:10195000E58F23A2FAC083A74AC02167130520039D
:10196000D98F23A2FAC0EF10A0681305200323A883
:101970003AC1EF10E06703A58AC023AA3AC183A742
:101980004AC0F2406244FD8C23A29AC083A74AC099
:101990000D672D81D98F23A2FAC0D2444249B249A2
:1019A000224A924A058905618280232A470195BF10
:1019B000B717014003A747C0C5760111FD1622CC19
:1019C00026CA4AC84EC652C4758F06CE23A2E7C0A7
:1019D00003A747C0A1660569558F23A2E7C0A144AC
:1019E0000144371A01409309004013090980130587
:1019F0002003EF10E05F23283AC183278AC0060442
:101A00001374F40FB3F7270181C705041374F40F9F
:101A100013052003FD14EF10A05D93F4F40F232AA7
:101A20003AC1F1F403274AC0C576FD16758F23220B
:101A3000EAC003274AC02285F24062448D66558F72
:101A40002322EAC0D2444249B249224A0561828037
:101A5000011106CE2EC622CC26CAAA846D3B1305E0
:101A6000000671352A8413054006EF10605826855C
:101A7000BD3D498C13054006EF108057B2452E85B9
:101A8000BD3509C90544D13B2285F2406244D244A8
:101A9000056182801374F40F33348000EDB70111B7
:101AA00006CE22CC2A84853B130500068935130512
:101AB0004006EF10E05322851D3D13054006EF1050
:101AC0002053613B13054006EF108052A9331305E4
:101AD0001006313D13054006EF108051D13D2AC656
:101AE000753BA53BF24062443245056182807971C5
:101AF00085451305C00306D622D426D24AD04ECE41
:101B0000B7140140EF00F07D9309000841490D44EE
:101B10004C00138504C0231231014AC622C4EF00D1
:101B2000102D4C0037150140231231014AC622C442
:101B3000EF00F02B13048004930700674C0013851B
:101B400004802312F10022C6EF00702A8567938774
:101B500007F44C00138504C02312F10022C6EF00E5
:101B600010298967938707F04C003715014022C67A
:101B70002312F100EF00B027B250225492540259C0
:101B8000F24945618280411106C622C426C237143B
:101B90000140B13F9304000844C82945EF10204894
:101BA0002945232A94C0EF108047232894C0EFF0E2
:101BB000BFC185451305F00F613D930500084945F8
:101BC000413D13052003EF1080457145C93D1314B5
:101BD00005014180220442047545D1354180418D83
:101BE00093150501A167C181938727FA638EF500DC
:101BF000378500001305857DEF2020470545B2405D
:101C000022449244410182802945513D131405012B
:101C10004180220442042D4559354180418D931560
:101C200005018967C18193872764638AF500378539
:101C300000001305457EEF2040430945C9B72164E4
:101C40001304047F930444168345140003450400E1
:101C50000904FD3BE31A94FE014555B7411122C426
:101C600025641304449526C206C69304C401834523
:101C70001400034504000904E13BE31A94FEB2405A
:101C80002244924441018280B367B5008D8BA5E365
:101C9000411122C426C22A84AE841305F00F814567
:101CA00006C67D3391451305000E5D339355240020
:101CB00093F5F50F1305A005613B93D5240093F52B
:101CC000F50F1305B005693393D5840029800D887D
:101CD0009189C18D1305C005A53B81451305000EF3
:101CE000853BB24022449244014541018280054532
:101CF0008280411122C426C22E84AA848145130504
:101D0000F00F06C6EFF0DFD4A6851305300DEFF017
:101D10003FD485451305F00FEFF09FD3A2852244F1
:101D2000B2409244454541016FF09FD2411106C631
:101D30003537930500141305000FB937B2408D45B0
:101D40003D4541017DB7B71702409843B706FFF8FC
:101D500041111367170098C3D84337060200758FE7
:101D6000D8C39843B706F7FEFD16758F98C39843FE
:101D7000B706FCFFFD16758F98C3D843B70681FFE1
:101D8000FD16758FD8C39843B70600ECFD16758F06
:101D900098C33707FF0098C723A6070202C402C6EC
:101DA0009843C166558F98C3B716024005679C4299
:101DB000F18F3EC6A24785073EC4B24781E7A247DE
:101DC000E397E7FEB71702409C431397E70063577A
:101DD000070685473EC632478547631FF704B71796
:101DE0000240D843B706C1FFFD16D8C3D843D8C3B5
:101DF000D84313670740D8C3D843758FD8C3D84397
:101E0000B7061D00558FD8C39843B7060001558FFC
:101E100098C3984393166700E3DD06FED843B716D0
:101E20000240719BD8C3D84313672700D8C321470A
:101E3000DC42B18BE39EE7FE4101828002C661BFB6
:101E4000797122D426D22E84AA848545054506D6EA
:101E5000EF00104BEFE0AFC537050040EF00F04F4B
:101E60004C0837050040231C9100231A8100231DD4
:101E70000100231B0100EF00D05D0945EF00D027D2
:101E80009307C0022316F100680085473EC8230768
:101E90000100EF00D026854537050040EF00507D5A
:101EA0000546854537050040EF00907681453705AA
:101EB0000040EF00D072B2502254925445618280AB
:101EC000011122CC26CA2E84AA848545414506CE1E
:101ED000EF001043C1474C00371500402313F100B9
:101EE000231491002312810023150100EF00705686
:101EF0000546854537150040EF009071854537153B
:101F00000040EF005072854537150040EF00306DFE
:101F1000F2406244D24405618280011122CC26CA7B
:101F20002E84AA8485451305000206CEEF00503D9D
:101F30002312810037140040C1474C0013050440B0
:101F40002313F1002314910023150100EF007050BA
:101F50000546130504408545EF00906B13050440CA
:101F60008545EF00506C130504408545EF00306750
:101F7000F2406244D24405618280011193076014EB
:101F8000231501002314F10089472305F1002800DF
:101F9000854706CE3EC6EF009016F240056182806E
:101FA000011193077014231501002314F1008947D0
:101FB0002305F1002800854706CE3EC6EF00301409
:101FC000F24005618280411181453705004006C617
:101FD000EF00F068B24085453705004041016F00D1
:101FE00010608145370500406F00705F7971B797C9
:101FF000000052CC56CA03AA879783AAC79722D457
:102000004ECE37240140B719014026D24AD05EC6D1
:1020100062C466C206D65AC8154993040000938963
:10202000094013040480854C930B803EEFE00FB70A
:10203000930500404E855125A1652285952D6DDDC6
:102040005937A1652285AD25E30D95FF593F370529
:102050000040EF009061138B018483570B007D19C2
:10206000B38777033E95EF10C0665286D686EF1091
:10207000000BEF109061AA852685EF10006C81455A
:10208000AA8437050040EF00905D13054006231039
:102090000B00EF00D078E31B09F8B797000083A589
:1020A00007972685EF1010201384418408C0AA8466
:1020B000EF10F0522A8637950000AE86130505987A
:1020C000EF10B07AB797000083A547970840EF104C
:1020D000504893050040635505023715014013052C
:1020E0000540F12BB2502254268502599254F249F0
:1020F000624AD24A424BB24B224C924C456182809A
:1021000037150140130505404D2BE9BF85453705BF
:102110000040EF00D05609CD854537050040EF005F
:10212000D0579387018403D7070005072390E70062
:1021300073002030854537150040EF007053054788
:10214000A38EE18283A7C1C8850723A6F1C87300C7
:10215000203037150040854513050540EF005051EC
:102160000547238EE1827300203001A001A001A069
:1021700001A001A001A001A001A001A001A001A057
:1021800001A001A001A001A001A001A001A001A047
:1021900001A001A001A001A001A001A001A001A037
:1021A00001A001A001A001A001A001A001A001A027
:1021B00001A001A001A001A001A001A001A001A017
:1021C00001A001A001A001A001A001A001A001A007
:1021D00001A001A001A001A001A001A001A001A0F7
:1021E00001A001A001A001A001A001A001A001A0E7
:1021F00001A001A001A001A001A001A001A001A0D7
:1022000001A001A001A001A001A001A001A001A0C6
:1022100001A001A001A001A001A001A001A001A0B6
:1022200001A001A001A001A097E1FF1F938181649B
:1022300017610020130101DD177500001305859B50
:1022400097E5FF1F938505DC1386818263FAC5003D
:102250008322050023A0550011059105E3EAC5FE80
:1022600013858182938541CA6377B50023200500D9
:102270001105E36DB5FEFD42739002BCFD42739003
:102280004280B76200009382820873A0023097E216
:10229000FFFF9382A2DA93E2320073905230EFF0A4
:1022A0009FAA97F2FFFF9382C23873901234730093
:1022B00020301C4141677917F98F1CC1232005008C
:1022C0002322050023240500B7070240232605002A
:1022D000138787006317E500D8431367F700D8C357
:1022E00082801387C7016316E500D8431367070F81
:1022F000FDB7138707036318E500D8438566938607
:1023000006F0558FE9BF138747046315E500D843EE
:10231000BD66C5BF138787056316E500D843B706BA
:102320000F00C5B71387C7066316E500D843B70685
:10233000F000C1BF138707086316E500D843B7064E
:10234000000FC1B7138787406319E50003A7474013
:102350001367F70023A2E74082801387C741631702
:10236000E50003A747401367070FEDB793870743BF
:10237000631BF500B707024003A7474085669386B5
:1023800006F0558FC1BFB707024013874744631655
:10239000E50003A74740BD66EDB713878745631780
:1023A000E50003A74740B7060F00E1BF1387C74604
:1023B0006317E50003A74740B706F000D9B71387B6
:1023C00007486317E50003A74740B706000F55BF4E
:1023D000138707496319E50003A7474D1367F70003
:1023E00023AAE74C82801387074A6317E50003A7F7
:1023F000474D1367070FEDB71387074B6319E500C8
:1024000003A7474D8566938606F0558FD1BF138786
:10241000074CE319E5FC03A7474DBD66FDB71C411A
:1024200061773D0794517D8F9C45D58F9449D58F19
:10243000D449D58F944DD58FD44DD58FD451D58FC8
:102440009455D58FD98F1CC1DC455CC19C411CC5FE
:10245000DC415CC582801C4189C593E717001CC123
:10246000828041677917F98FDDBF4CC18280484176
:102470004205418182809317350063D70700B70773
:10248000024023A2A74082809317250063D707004C
:10249000B707024023AAA74C8280B7070240C8C3EF
:1024A00082805841032805004C45370601409307B8
:1024B00006403E979346F8FFB1C583250640F58D4B
:1024C0002320B640D043F18ED4C31443B3E60601B3
:1024D00014C3184190479346F7FF758E90C7D047B5
:1024E000F18ED4C7144541466399C6009447D98EEE
:1024F00094C7D447558FD8C78280B6979443558FD9
:1025000098C382801C43F58F1CC38280B7070140AB
:1025100023AAA740828014455C4158450328C50280
:10252000D58FD98F1849370600A0D98F5849D98F30
:10253000184DD98F584DD98F1851D98F5851D98FDF
:102540001855D98F1859B3E70701D98F18410A07D1
:102550003A961CC2A1476396F6001C4293E7070413
:102560001CC254598C4E9C42CD8FCC429205CD8FCB
:102570008C46A205CD8FCC46C205CD8F8C4AD44A5D
:10258000D205CD8FE206D58F5CC291676319F80240
:10259000145D904E9C42D18FD0421206D18F90464E
:1025A0002206D18F904AD44A5206E206D18FD58FA7
:1025B000B70600A09386461036971CC38280B707E3
:1025C00000A0938747103E97B7070010FD17F5B797
:1025D000B70700A00A053E951C4189C593E717007F
:1025E0001CC18280370710007917F98FD5BF9C4531
:1025F00013F7070113F8F70001C7D8413368E80063
:1026000083D5050013F7F50F39C318418146854E70
:102610003D4F930F800293028004214E3396DE00DB
:10262000B3F8C500631116039398260033131F01F6
:102630001343F3FF3377E300B318180133E7E800DF
:10264000639FF70550C98506E39AC6FD18C11307B5
:10265000F00F6375B70454412146854E3D4F930FEB
:10266000800293028004414EB398CE0033F71501E7
:102670006392E8021317260001173313EF00134388
:10268000F3FFB376D3003317E800D98E639DF701CB
:10269000232A15010506E319C6FD54C18280E3947F
:1026A00057FA10C94DB7E39757FE23281501DDB738
:1026B00008456D8D3335A00082800CC982804CC9DD
:1026C000828019C20CC982804CC9828013F7C50F61
:1026D00093F73500B7050140BA9594458A073D4701
:1026E0003317F7001347F7FF758F98C598453315D3
:1026F000F500598D88C58280397122DC26DA2A845A
:102700008354450068082EC606DE75249257374765
:102710000F001307072433D7E702C204C18093F4E4
:1027200004FCC204C180B24561651305056A131635
:1027300007014182D18C2312940083560400C20603
:10274000C182F99AC206C1822310D4009441636603
:10275000D5068606B3D7D702914613970701418362
:10276000BA876373D700914705064206C2074182C4
:10277000C1832310C402231EF4008357040003D72F
:10278000450083D6A50093E717002310F400835774
:102790000400558FF250C207C18393F757BFD98FFA
:1027A0002310F40003D7850083D7C500D254D98FF6
:1027B0002314F40062542161828003D565003166E0
:1027C0007D16631EC5020D46B386C602B3D7D70277
:1027D000C207C1839396470199E293E71700A16668
:1027E000D58F9306C0123307D7029306803E334736
:1027F000D7020507420741832310E402ADBF6546B7
:10280000B386C602B3D7D7029166C207C183D58FFC
:10281000D1B78357050091C593E717002310F50042
:102820008280C207C183F99BC207C183C5BF83579A
:10283000050091C593E707102310F5008280C207B9
:10284000C18393F7F7EFC207C183FDB78357050034
:1028500091C593E707202310F5008280C207C1834A
:1028600093F7F7DFC207C183FDB78357050091C512
:1028700093E707402310F5008280C207C18393F7D6
:10288000F7BFC207C183FDB72318B5008280035587
:1028900005011375F50F828093F7E50F19C293E7D1
:1028A0001500C207C1832318F500828083574501B4
:1028B0000355850142055D8D6D8D220521810D8DAC
:1028C000133515008280411102C402C693D7C50199
:1028D0002AC63EC4A247A205A18199CBB247D1071F
:1028E0003EC6B247884341016D8D3335A0008280DA
:1028F000B247C181E107EDB723A4A1848280938709
:10290000818494430347050089E6834725009207A5
:1029100031A8944305466391C604834725000346C6
:10292000150092076314D60093E707F8B7E600E0B6
:1029300093F7F70FBA962380F640854693575700D2
:102940003397E6005441ADC6938707048A07B7E67C
:1029500000E0B69798C382808C4389466393D50282
:1029600083461500834725006365D6008A06B6971F
:1029700079BF9386E6038A06B69793F7F70F920717
:1029800065B790438D46631ED60083461500834786
:1029900025006364D6008606D9BF9386C6078606DF
:1029A000E1BF94439147E39AF6F88347150085B752
:1029B0009387070661BF371702405C439146B18B8E
:1029C0006385D700A1466386D706B7177A00938739
:1029D00007201CC1371602405C423707002013074E
:1029E00007009183BD8BBA9783C607001C41B3D7FC
:1029F000D7005CC15442A1829D8ABA9683C6060064
:102A0000B3D6D70014C55442AD829D8A369703478A
:102A10000700B3D7E7005CC5584239839376370087
:102A200013874181369703470700B3D7E7021CC9D4
:102A300082805C4354434167C983F98E37F7FF1F97
:102A40000327C770BD8B890713161701634806005B
:102A5000454601476392C702C94739A809476389B8
:102A6000E7023D476388E70241476388E70245463E
:102A700001476393C700C14785E6B746024083A676
:102A80000680C18A8DC6B7167A009386062025A0D7
:102A90000147D9B70547B547C5B70147BD47E9BFA6
:102AA000B7160240D4421396E600E35E06FCB71662
:102AB0003D0093860690B387D7021CC101DF1C41FD
:102AC000858301BF99C5371702405C4B5D8D48CBAC
:102AD0008280B7170240D84B1345F5FF798DC8CBDC
:102AE000828099C5371702401C4F5D8D08CF8280C8
:102AF000B7170240984F1345F5FF798D88CF828034
:102B000099C5371702405C4F5D8D48CF8280B7175B
:102B10000240D84F1345F5FF798DC8CF828099C503
:102B2000371702405C475D8D48C78280B717024067
:102B3000D8471345F5FF798DC8C7828099C53717E7
:102B400002401C4B5D8D08CB8280B7170240984B2A
:102B50001345F5FF798D88CB82804111B73701404D
:102B600006C622C4138707C0631EE50005648545B9
:102B7000130504806D378145130504802244B2405B
:102B8000410171BF938707406318F50085450965CA
:102B9000793781450965DDB7B7570140138707C00D
:102BA000631AE500854537050800953F81453705DF
:102BB0000800E9B7631AF500854537051000853729
:102BC0008145370510005DBFB7070040631BF50066
:102BD00085450545A537814505452244B24041015B
:102BE000B1BF938707406318F50085450945B9379C
:102BF00081450945DDB7B717004013870780631883
:102C0000E500854511451D3F81451145F9B71387FD
:102C100007C06318E500854521450D3781452145ED
:102C20006DBF6318F50085454145093F8145414524
:102C30006DB793870740631AF500854513050002B9
:102C4000F53D81451305000249BFB24022444101D0
:102C500082808357050037370140930607C0C207BB
:102C6000C1836300D504B7060040630CD502938688
:102C700006406308D502B71600401386068063023B
:102C8000C502938606C0630ED50013070740630A8A
:102C9000E50037570140930607C06304D50063176A
:102CA000E50003D7250093F7F7F8D98F37170040D1
:102CB000630DE500130707406309E50093F7F7CFBD
:102CC00003D76500C207C183D98F2310F50083D7CE
:102CD00045002316F50283D705002314F502B73704
:102CE0000140138707C0630EE50093870740630A1E
:102CF000F500B7570140138707C06304E50063166A
:102D0000F50083C785002318F5028547231AF500CF
:102D100082808357050265771307F7CFC207C18307
:102D2000BD9BC207C1832310F5028357050283565A
:102D3000450003D88500C207139606018356850116
:102D4000C18393F7F7FD758F83D605004182A206F4
:102D5000558F83D6250042074183B3E606019206CC
:102D6000D58FB7360140C207138806C0C183630EF2
:102D7000050193860640630AD500B75601401388C3
:102D800006C0630405016311D50483D6A50093F73B
:102D9000F7F703D8C5009206D58F83D64500C20742
:102DA000C183920693F7F7FBD58FFD769386F63FA6
:102DB000F18E03D6E500C207C183336606010A0619
:102DC000D18E1396060141822312C500231CE50013
:102DD00003D76500231CE5022310F5028280835788
:102DE000050091C593E717002310F5008280C20704
:102DF000C183F99BC207C183C5BF8357450491C5F1
:102E00002167D98F2312F5048280C607C583DDBFF1
:102E10008357C50009C6DD8D2316B500828093C592
:102E2000F5FFFD8DD5BF8357050091C593E70708D2
:102E30002310F5008280C207C18393F7F7F7C2071A
:102E4000C183FDB703578501FD779387F77FF98F1E
:102E5000A205CD8FC207C183231CF50082802312F7
:102E6000B5028280231CB502828003554502828010
:102E700093C5F5FFC205C1812318B5008280835731
:102E800005010355C500ED8F4205418189C76D8D50
:102E90003335A00082800145828093C5F5FFC205CD
:102EA000C1812318B500828083560501F577FD178F
:102EB000F58F83D66500397122DC06DED58F03D706
:102EC000C5002318F5008356C500FD779387379F0B
:102ED000F58F83D645002A842EC6D58F83D68500EC
:102EE000D58F83D6A500D58F2316F50083574501CE
:102EF000C207C18393F7F7CFD98F231AF50068086B
:102F0000EFF07FABB747014093870780B245631E60
:102F1000F404A2578356C4006547B387E702C2068C
:102F2000C186984163D5060406070356C4004206CD
:102F3000B3D7E702130740064186B3D6E702B3F7DB
:102F4000E7029206635706028E0793872703B3D7DB
:102F5000E70213F77700B367D700C207C1832314D2
:102F6000F400F250625421618280925765B70A07DB
:102F70006DBF920793872703B3D7E702BD8BD58F29
:102F8000E9BF81C98357C5000967D98F2316F500AA
:102F900082800357C500F977FD17F98FC5BF8357A6
:102FA000450109C6DD8D231AB500828093C5F5FF62
:102FB000FD8DD5BF93F5F51F2312B5008280035513
:102FC00005006D8D3335A000828083A701813717FE
:102FD0007A0013070720B3D7E70293F7F70F238789
:102FE000F1841307803EB387E7022396F184828041
:102FF000B7F700E0D8438146799BD8C303C7E18483
:103000003306A70290CBD4CB98431367170398C31A
:10301000D843058B75DF9843799B98C38280B7F7B7
:1030200000E0D8438146799BD8C303D7C1843306D7
:10303000A70290CBD4CB98431367170398C3D84308
:10304000058B75DF9843799B98C38280797122D470
:103050002A8411658545110506D6EFF09FA89307D0
:1030600000202312F100371501408D473EC44C006B
:10307000E147130505803EC6EFF06FD722C83744FD
:103080000140B70708000C08130504803ECC02CAB3
:10309000231E0100EFF05FE1130504808545D5355F
:1030A000B250225445618280011126CAB7440140C2
:1030B00022CC4AC84EC606CEAE89328901449384DA
:1030C0000480634A2401F24062444A85D244424962
:1030D000B24905618280930500042685EFF03FEE3A
:1030E0007DD9B38789008385070026850504C2053D
:1030F000C181EFF03FECF1B7138781811C439386C8
:1031000041CA3E95636BD500B78600209386068042
:1031100063E5A60008C33E858280FD57EDBF397187
:1031200093D7450122DC4AD856D22A891394C50088
:1031300006DE26DA4ED652D45AD05ECE13F5F77F8D
:10314000318093DAF501630B05109307F07F630B71
:10315000F514135AD9010E0433648A00370A80002B
:10316000336A4401131B3900930415C00144814B99
:1031700013D846011399C6001378F87FB288135903
:10318000C90093D9F601630E08089307F07F630026
:10319000F8041357D6010E0933692701130818C024
:1031A000B70780003367F90093183600B3840441F1
:1031B0008145BD4733C83A0163E4871A9757000039
:1031C0009387877D0A043E9410403E9602863367BB
:1031D000C90093841480631207101364240081488B
:1031E0008945C1BF1306F07F81470147B207F250FE
:1031F00062545206B1837E08D18FB3E70701D254DF
:103200004259B259225A925A025BF24B3A85BE8514
:103210002161828001481306F07FB707080001474B
:10322000F1B73367C9004DC7630809304A8532C416
:10323000EF00505C2246130755FFF547930685FFC4
:10324000998F3319D900B357F60033E72701B31824
:10325000D60026959304353F8145A1BF336A2401EA
:1032600063030A0636C632C46306042A2285EF00C9
:1032700070582246B246AA84130755FF754A138B2D
:1032800084FF330AEA4033146401335A4901336A34
:103290008A00331B69011305D0C0B3049540014473
:1032A000814BF9B5336A240163180A002144014BAC
:1032B0009304F07F894B6DBD228A4A8B314493047D
:1032C000F07F8D4B75B51144014B8144854B4DB555
:1032D0001364140081488545E9BD136434004A87AE
:1032E0008D45C1BD630A052E8547898F93068003EE
:1032F00063DDF632014681470147CDBDCE86894761
:10330000638DF53A8D47E387F5F085473688E3838B
:10331000F5FE1385F43FE357A0FC93F7780063961E
:10332000072893D638009317770063D80700B707AC
:1033300000FFFD177D8F138504409307E07FE3C3F3
:10334000A7EA1316D70193179700B1833367D60006
:103350001376F57F61BDD6865287DA88DE8545B75C
:1033600063614723630DEA20DA86FD145284014B22
:103370009317870013D388013363F300935E03012F
:10338000B357D403131F0301135F0F0193D5060135
:10339000139E88003374D4033307FF024204C18DA7
:1033A00063FBE5009A951386F7FF63EE652663FCE1
:1033B000E526F9179A95998D33D7D503C206C182B0
:1033C000B3F5D5033306EF02C205D58D63FBC50007
:1033D0009A959306F7FF63E6652463F4C52479178D
:1033E0009A95C20741645D8F9307F4FF3375F70028
:1033F00093580701935F0E01B377FE00B302F50205
:10340000B386C540B383F80293D502013386AF0279
:103410001E962E963385F803637376002295C16855
:10342000FD1893550601337616014206B3F81201D2
:10343000AA95469663E6B6126382B6123306CB406F
:103440008D8E333BCB00338B66411385F43F630C89
:103450006317B358DB0393550601337BDB03B306D5
:103460001F03420B33EB6501637BDB001A9B9385E3
:10347000F8FF636D6B20637BDB20F9181A9B330B1D
:10348000DB40B356DB0342064182337BDB03330F61
:10349000DF02420B33666601637BE6011A96938571
:1034A000F6FF6367661E6375E61FF9161A96C20873
:1034B000B3E8D8009395080193D20801C181B38E77
:1034C000F5023306E641B385BF0293D60E01B387FA
:1034D000F202BE95AE96B38F5F0263F4F600C16749
:1034E000BE9FC165FD1593D70601ED8EC206B3FEE2
:1034F000BE00BE9FF696637FF6091A969387F8FF83
:103500006369661A6368F619630FF61BBE8893E851
:10351000180011B54A85EF00F02D13075501F1454C
:10352000930405022246B246E3DAE5D4130485FF8C
:10353000331A8900014B85B3328532C4EF00902BDA
:1035400013075501F146AA87224613050502E3D663
:10355000E6CEE1173317F6008148E5B9E370CBEE0C
:10356000729B3335CB011A95AA961305F7FF637842
:10357000D30263E6B6106382D5102A87C1B5E3652E
:103580001BDF93551B009316FA0113541A00CD8EBE
:103590007E0BF9BBE31DF6F7E38F06D6B9BFE31E3A
:1035A000D3FCE378CBFD2A8751BD93F7F800914611
:1035B000E389D7D693B7C8FF9386480093C717000F
:1035C0008D823E978DB381468547E34CA0FEFD5822
:1035D000E31C05D0930410C085471385E441B3165E
:1035E000A70033D6F8003395A800D18E3335A0005C
:1035F000C98E13F676003357F70001CE93F7F60025
:1036000011466388C70093874600B3B6D700369744
:10361000BE869317870063D8070405468147014794
:10362000F1B636877DBBB28779B3FD46E3D7F6FAAC
:103630000556098E930600023356C7006388D700EB
:103640009387E443B317F700B3E8F800B3361001EB
:10365000D18E13F67600814701CE93F7F60011461E
:103660000147E392C7FA931797001316D701B18366
:1036700013D73600518F014695BEE370CBF0729B95
:103680003335CB011A957917AA964DBBAE88C5BBC9
:10369000AE8631BD93171E0033BEC70172931A96D2
:1036A000F9183E8EE315F6E7E307DEC693E8180047
:1036B0009DB1BE88E30AF6FF99BD36881306F07FF8
:1036C0008147014725B6E367DEFCBE88E310DEFED6
:1036D00099B11DCD411122C406C62A84EF00901174
:1036E0009306E041898EA94793F6F67F63DCA70233
:1036F0005515B317A400B207B1830147B240224465
:10370000B207D206B183D58F3A85BE85410182804A
:1037100081478146B207D206B1830147D58F3A85EA
:10372000BE8582802D47098FB357E400B207130787
:1037300055013317E400B183D1B741113707800039
:103740007D1713D8750126C2935475013373A700F2
:1037500093F4F40FB376B7004AC01378F80F1359F7
:10376000F50106C622C4FD819A8726854A86131E66
:103770003300939E3600B3880441630AB90E635048
:10378000100D630408149307F00F638BF414B7074C
:103790000004B3EEFE00ED4763C117299307000252
:1037A000B3871741B397FE00B3D81E01B337F000BB
:1037B000B3E7F800B307FE4013975700635E07189E
:1037C000370400047D147D8C2285EF00B0026D1556
:1037D000B317A4006348951A058D13041500130749
:1037E0000002018F3397E7003337E000B3D787003B
:1037F000D98F814413F7770019C713F7F700914663
:103800006303D700910713975700635B0714850480
:103810001307F00F4A866383E4169A07A58313F50E
:10382000F40FB2402244A6079314750113D59700F4
:10383000458D7E0692440249518D410182806399F3
:10384000080A138714001377E70F631707146390B0
:103850000422630D0E1EE3860EFCB307DE411397B0
:10386000570063500722B387CE412E8961B7635C4E
:10387000100B630E08089307F00F6383F406B70775
:103880000004B3EEFE00ED4763C9171F9307000263
:10389000B3871741B397FE00B3D81E01B337F000CA
:1038A000B3E7F800F297139757006357070A8504A8
:1038B0001307F00F6384E40CB706007E13D71700DC
:1038C000FD16858B758FD98F35B7638D0E08FD1862
:1038D000B307DE41E38208EE9307F00FE39DF4EABD
:1038E000630D030801461305F00FB707400015BF2D
:1038F00033079840EDE863020E147D17630807183C
:103900009307F00F6319F80E2E893683D1BF638BAE
:103910000E04FD18B307DE01E38708F89307F00FE4
:10392000E393F4F675BF63950808850413F7E40F75
:103930006313071263170510630F0E14E3830EEE73
:10394000B307DE0113975700814463570700370719
:1039500000FC7D17F98F854413F77700E31F07E814
:1039600013D337009307F00FE38CF4F6931793000B
:10397000A58313F5F40F4A866DB54A861305F00F3B
:10398000814745B5370700FC7D17F98F13F777009E
:10399000898CE31407E6E9B73304DE41931754003A
:1039A00063C3070CE31204E201460145814795BD5C
:1039B00033079840ADC49307F00FE308F8F4B70756
:1039C0000004336EFE00ED4763CCE70C9307000262
:1039D000998FB317FE003357EE00B337F000D98F3D
:1039E000F697C284C9B59307F00FE30FF8F0B70755
:1039F0000004336EFE00ED4763C3E7089306000240
:103A0000998EB316DE00B357EE003337D000D98F4E
:103A1000B387FE40C2842E8945B3854761BB630EE0
:103A20000E067D17B307DE01C284E30E07E6930797
:103A3000F00FE31AF8F8368365B53683C2842E8911
:103A400015B7E3040EECE38D0EE869BD638D0E023D
:103A50002E86B687F9B39307F00FE381F4F2B3072C
:103A6000DE018583D5BD3384CE412E89B1BBE31CF5
:103A70000EFCE3890EE62E8949BD854725B58547AD
:103A800041BFE39B07EC0146814761BBB387CE4151
:103A9000C2842E8915B3B68769B33683C284D9B57B
:103AA00085473DBF3971935775014AD856D25ECECE
:103AB000931A95001359F50106DE22DC26DA4ED65C
:103AC00052D45AD093F7F70F93DA9A00CA8B6382D5
:103AD00007121307F00F6384E7128E0A37070004FA
:103AE000B3EAEA00138A17F80144014B93D7750132
:103AF0009394950093F7F70FA58093D9F501FDC72F
:103B00001307F00F6387E7028E04938717F83707D0
:103B10000004D98C330AFA408146558C17570000AF
:103B2000130787EB0A043A941C4033493901BA97CA
:103B30008287130A1AF0F9E88946558C1757000056
:103B4000130787ED0A043A941C4033493901BA97A8
:103B5000828701491307F00FB707400013959700BC
:103B6000F25062549317770125817E095D8D33658C
:103B70002501D2544259B259225A925A025BF24B51
:103B8000216182801307F00F8147C9BFA68ACE8BBF
:103B9000368B89476309FB1A8D47E30CFBFA85478F
:103BA0006308FB0A1307FA0713F91B006355E012B9
:103BB00093F77A0099C793F7FA0091466383D70089
:103BC000910A93974A0063D90700B70700F8FD17D9
:103BD000B3FAFA0013070A089307E00FE3C4E7FA01
:103BE00093976A00A5831377F70F8DBFB1E48546DD
:103BF000A9B763940A021144014A054BC5BD6399F4
:103C00000A002144130AF00F094BCDB58D4631B798
:103C10003144130AF00F0D4BD1BD56852EC6D92E57
:103C20009307B5FFB39AFA009307A0F8338AA74029
:103C30000144014BB2455DBD26856D2E1307B5FFCE
:103C4000B307AA00B394E400138A67078146F1B56D
:103C500013F91B000147814711B7416613955400C2
:103C60007D1693570501698E63FA9A0AB3D5FA0255
:103C70007D1AD68601473388C502B3F6F602C2061E
:103C8000558F637B07012A979386F5FF6368A70A20
:103C90006376070BF9152A9733070741B356F702E6
:103CA0003377F702B38AC6029317070163FB570104
:103CB000AA971387F6FF63E1A70863FF5707F91672
:103CC000AA97C205B38A5741D58DB33A5001B3EADA
:103CD0005501CA8BC1BD8546998E11C76D460147F6
:103CE0008147E34DD6E6130AEA09339A4A01B3D76E
:103CF000DA00B33A4001B3E7570113F7770019C769
:103D000013F7F70091466303D70091071397570005
:103D1000634807029A07A583014789B593D61A001D
:103D2000B3D5F6021397FA0141833388C502B1B7C0
:103D3000CE8B368B814AB1BDBA8661B7B685A9BF35
:103D40000547814721BD13F91B001307F00F814779
:103D500031B593567501B7078000FD1713D675016D
:103D600093F6F60F1308F00FB3F8A7001357F501F9
:103D7000ED8F1376F60FFD81638706036309060155
:103D800085EA11EA89EB0145639B080082800945B9
:103D9000F5FFE5DA31A8638C08026300B704054536
:103DA00075D77D5582800945639808026304D60261
:103DB00011E2F5D7E315B7FEE343D6FE63C7C600AD
:103DC000E3EF17FD0145E3F3F8FC19E3D9BFF1D99F
:103DD00005458280E5D3828082808146C5B713572E
:103DE00075011377F70F41119307170022C426C2FC
:103DF0001314950006C693F7E70F25809354F50139
:103E000085C793573400130707387604B207520763
:103E1000B1831395F401D98FC98FB2402285224412
:103E20009244BE854101828005EB39C42285D922A6
:103E3000A94763C6A7042D47098F93075501335738
:103E4000E4003314F4009317C70013079038098F68
:103E5000B1831377F77F5DBF01CC13573400B707E9
:103E60000800D98FB2077604B1831307F07F79BFBA
:103E70001307F07F814759BF0147814741BF1307AF
:103E800055FF3317E40001447DBF93D64501939756
:103E9000C50093F6F67FB183138616008E0713577D
:103EA000D5011376E67FFD815D8F9318350035CE01
:103EB000138806C89307E00F63DD07018147139558
:103EC00097009306F00FDE062581FE05558D4D8D7A
:103ED00082806355000B931765000E07B337F0001F
:103EE000D98F93D8D801B3E7170113F7770063018F
:103EF000071013F7F70091466303D70091073707C0
:103F000000047D8F75C7130718001306F00F937612
:103F1000F70FE305C7FA9A07A58313959700DE0606
:103F20002581FE05558D4D8D8280B367170199EE71
:103F300085CF95479A07A5831395970093F6F60FBB
:103F4000DE062581FE05558D4D8D8280A5DBB707E8
:103F50004000139597009306F00FDE0681452581FA
:103F6000FE05558D4D8D82808147139597008146C2
:103F7000DE062581FE05558D4D8D8280A55763484F
:103F8000F804F94737068000B38707417D45598E0D
:103F90006351F5047957330707411305000233577E
:103FA000E6006388A700938626CAB316D600B3E856
:103FB000D800B3371001D98F13F77700014815FBEC
:103FC000139757008546E34807F48146A5B7814615
:103FD0008DB7938626C83397D8003337E000B316E1
:103FE000D600B3D8F800B367D700B3E7F800E9B755
:103FF000C28689B7C167637EF5029307F00F130786
:10400000000263ECA700975700009387E7A4AA97E4
:1040100003C507003305A740828021819757000020
:10402000938787A3AA9703C5070061473305A74075
:104030008280B7070001636EF50061819757000029
:10404000938787A1AA9703C5070021473305A74097
:104050008280418197570000938707A0AA9703C5E4
:10406000070041473305A740828039713EDA2ED2DE
:1040700032D436D63AD842DC46DE9387C18122CC90
:10408000804326CA06CEAA8409C41C4C99E3228523
:10409000612B0C4454102686228536C6EF00D0557D
:1040A000F2406244D24421618280011126CA4AC88A
:1040B00006CE22CC4EC652C4AA842E8901C51C4D00
:1040C00091E39D239C4C804499E32685B12B97571F
:1040D0000000938767AA631CF402C0408357C400A2
:1040E000A18BB1C71C48A1C7FD59294A1C4483456F
:1040F0000900FD17B1E91CC463DE07062286A94545
:104100002685FD28FD576308F502294535A09757F8
:104110000000938767A86314F4008044C1B79757E1
:104120000000938767A3E31BF4FAC04445BFA28550
:104130002685792255D97D55F2406244D2444249C0
:10414000B249224A056182801CC4050963D7070071
:10415000184C63CBE700638945011C4013871700A7
:1041600018C02380B70059B7228626855128E31F3F
:1041700035F7D1B71C401387170018C02947238093
:10418000E70061B79387C181AA8588436FF0FFF18B
:104190001971A2DC86DEA6DA3284635B060093071F
:1041A000B0081CC17D55F6506654D6540961828012
:1041B0003686930680202EC42ECC231AD10081454A
:1041C00019C09305F4FFFD572EC82ECEBA862C00D9
:1041D000231BF100AA84EF005013FD576355F5002F
:1041E0009307B0089CC061D0A2472380070065BF39
:1041F0009387C1813687B2862E86AA85884349BFB8
:10420000011122CC26CA4AC806CE4EC6AA842E89DF
:10421000328401C51C4D91E3012997570000938713
:10422000A7956319F406C0401C4C1CC48357C400F6
:10423000A18BC9C31C48BDCF1C4808409379F90F16
:104240001379F90F1D8D5C486346F500A28526851C
:10425000652C2DE51C440505FD171CC41C40138767
:10426000170018C0238037015C486389A700835773
:10427000C400858B81CBA9476316F900A2852685EA
:1042800061240DEDF24062444A85D2444249B2496C
:104290000561828097570000938707906314F400AC
:1042A000804459B7975700009387078BE31EF4F6B5
:1042B000C0449DBFA285268521203DDD7D59D9B70B
:1042C00041119387C18126C2844322C44AC006C6D5
:1042D0002A892E8489C49C4C99E32685B126975758
:1042E000000093876789631CF402C0400317C40071
:1042F00093170701C18393F68700B5EE93F6070184
:104300009DEEA5472320F900136707042316E40058
:104310007D55B24022449244024941018280975720
:104320000000938767876314F4008044C1B79757F0
:10433000000093876782E31BF4FAC04445BF918B6A
:104340008DC74C5889C9930744046384F5004A8596
:10435000A923232A04028357C4002322040093F7CD
:10436000B7FD2316F4001C481CC08357C40093E714
:1043700087002316F4001C4881EF8357C4001307FD
:10438000002093F707286385E700A2854A85B521B9
:104390008357C40013F7170005C75C4823240400A3
:1043A000B307F0401CCC1C480145A5F78317C40097
:1043B00013F7070839DF93E707042316F40089BFD2
:1043C000898B014791E3584818C4F1BF83D7C500D2
:1043D000011122CC26CA06CE4AC84EC613F7870062
:1043E000AA842E8471EFD841634DE000B841634A3E
:1043F000E0000145F2406244D2444249B2490561BD
:10440000828058547DD703A904009396370123A0D6
:10441000040063DD060670488357C400918B99C77A
:104420005C401D8E5C5899C33C401D8E5C540C5002
:10443000814626858297FD570357C400631DF5000A
:104440009440F54763E8D706B70740208507B3D700
:10445000D700858BA5C31C48232204001CC09317DA
:10446000370163D80700FD576314F5009C4091E3C2
:1044700068C84C5823A02401ADDD9307440463842D
:10448000F50026851929232A0402A5B70C500146F8
:10449000854626850297FD572A86E31FF5F69C4040
:1044A000A5DF75476385E70059476394E70423A0B8
:1044B000240181B7136707042316E4007D551DBF4F
:1044C00083A90501E38709F203A905008D8B23A0C9
:1044D000350133093941014791E3D84918C4E35AFA
:1044E00020F11C540C50CA864E862685829763495B
:1044F000A0008357C40093E707042316F4007DBF90
:10450000AA993309A940E1BF9C49A5C3011122CC56
:1045100006CE2A8411C51C4D81E72EC63122B24534
:104520009747000093874765639CF5004C4083974D
:10453000C5009DC722856244F24005616FF01FE906
:1045400097470000938747656394F5000C44C5B70F
:104550009747000093874760E39BF5FC4C44C1BF3D
:10456000F24062440145056182800145828041112B
:1045700022C406C62A842316B5002317C5002320AB
:1045800005002322050023240500232205062328F5
:104590000500232A0500232C05002146814513052B
:1045A000C505EFB0FFC5971700009387E7EC5CD017
:1045B00097170000938747EF1CD497170000938745
:1045C00087F35CD497170000938747F600D01CD878
:1045D000B24022444101828097050000938505F393
:1045E00091AA411126C2130680069384F5FFB38475
:1045F000C4024AC02E8922C406C693854407912668
:104600002A8401CD2320050023222501310508C479
:10461000138684068145EFB0BFBE2285B240224496
:1046200092440249410182801C4DA5E7411106C612
:1046300022C497070000938767FA1CD593870182ED
:104640009C4323240504232605042328050463141E
:10465000F50085471CCD2A84352848C022851D28B1
:1046600008C42285052848C4484001469145EFF01A
:104670001FF008440546A545EFF07FEF4844094682
:10468000C945EFF0DFEE85471CCCB2402244410122
:104690008280828041119387018226C284434AC06E
:1046A00006C69C4C22C42A8981E72685EFF0DFF7F5
:1046B000938484048044DC40FD1763D607009C404B
:1046C000B9CF8440C5BF0317C40039E7C177850758
:1046D00023220406232004002322040023240400B0
:1046E0005CC423280400232A0400232C0400214650
:1046F00081451305C405EFB0BFB0232A0402232C63
:10470000040223240404232604042285B240224404
:1047100092440249410182801304840671BF91458D
:104720004A85EFF01FEC88C049FDB1472320F9000E
:104730000144E1BF797122D44AD052CC56CA5AC83A
:104740005EC606D626D24ECE2A8AAE8A13048504C9
:104750000149054BFD5B09ECB25022544A85925445
:104760000259F249624AD24A424BB24B45618280B9
:10477000044483294400FD1963D409000040E1BFCB
:1047800083D7C400637BFB008397E40063877701D2
:10479000A6855285829A3369A90093848406E1BF75
:1047A0001971A6DAAE848395E500A2DC86DE328438
:1047B00063DC050083D7C40023A0060093F7070835
:1047C00085E7930700401DA0300836C6EF00905BD8
:1047D000B246E34105FE7247BD67F98F7977BA9714
:1047E00093B717009CC2F1BF930700041CC0F6509A
:1047F0006654D65401450961828083D7C5000111F2
:1048000022CC06CE26CA4AC8898B2E8489CF93072C
:1048100074041CC01CC885475CC8F2406244D24482
:1048200042490561828074003000AA84EFF05FF78E
:10483000A2452A892685312201ED8317C40013F78A
:10484000072061FFF19B93E727002316F400C1B70F
:1048500097070000938787D89CD48357C40008C06B
:1048600008C893E707082316F400A2475CC8B247BC
:1048700091CF8315E4002685EF00705301C983575B
:10488000C400F19B93E717002316F4008357C4007C
:104890003369F9002316240149B7DDC183A7C5FF99
:1048A000411122C406C626C21384C5FF63D3070084
:1048B0003E94AA84EF009066938701859C4381EF24
:1048C0002322040023A881842244B24026859244F6
:1048D00041016F00D064637EF40014403307D400BC
:1048E0006396E7009843DC43369718C05CC0D9BF95
:1048F000BA87D84319C3E37DE4FE94433386D700D7
:10490000631F86001040B29694C33386D700E31D20
:10491000C7FA10435843B29694C3D8C375B76375AA
:10492000C400B1479CC04DB71040B306C400631625
:10493000D70014435843B29614C058C0C0C369B7D7
:104940008280011126CA93843500F19806CE22CCCC
:104950004AC84EC6A104B14763F5F404B14463E408
:10496000B4042A89EF00905B9387018598433A84C9
:1049700029E4938741859C4399E781454A85EF0067
:10498000D02C23AAA184A6854A85EF00102CFD59BE
:1049900063193507B1472320F9004A85EF003058E5
:1049A00029A0E3DE04FAB1471CC10145F24062448C
:1049B000D2444249B249056182801C40858F63CF51
:1049C0000702AD4663F6F6001CC03E9404C031A059
:1049D0005C406313870223A8F1844A85EF003054BA
:1049E0001305B4009307440061993307F5405DDF78
:1049F0003A94898F1CC05DBF5CC3C5B72287404015
:104A000085BF130435007198E30285FCB305A4400B
:104A10004A85EF009023E31B35FBADBF01114AC867
:104A200003A9850022CC52C45AC006CE26CA4EC65F
:104A300056C22E84328B368A63EE260983D7C50090
:104A400013F7074851C704408C495848AA8AB389CC
:104A5000B4408D44B384E4020947B3C4E40213872D
:104A600016004E9763F3E400BA8493F70740D9C366
:104A7000A6855685EFF0FFEC2A890DE5B14723A006
:104A8000FA008357C4007D5593E707042316F4000A
:104A9000F2406244D2444249B249224A924A024B0D
:104AA000056182800C484E86EF0050378357C40062
:104AB00093F7F7B793E707082316F4002328240198
:104AC00044C84E99B38434412320240104C452893C
:104AD00063732A01528908404A86DA85EF00703FE5
:104AE0001C440145B38727411CC41C403E99232028
:104AF000240179BF26865685EF0090422A895DFD04
:104B00000C485685EFF07FD995BF83D7C5007171EA
:104B100026D34AD14ECF06D722D552CD56CB5AC92D
:104B20005EC762C566C393F70708AA892E89B28457
:104B3000B9C39C49A9E39305000436C6EFF07FE0B2
:104B40002320A9002328A900B24615E1B14723A0DC
:104B5000F9007D55BA502A549A540A59FA496A4ABA
:104B6000DA4A4A4BBA4B2A4C9A4C4D6182809307E1
:104B70000004232AF90093070002A30CF102930713
:104B8000000302DA230DF10236CE930B5002974A4E
:104B90000000938A6A02054C294B2684834704004F
:104BA00099C3639D7709B30C9440638E0C00E6862D
:104BB0002686CA854E85EFF07FE6FD576304F51A19
:104BC000D256E69636DA83470400638D0718FD5700
:104BD0009304140002D002D63ED202D4A3010106EF
:104BE00082DC83C5040015465685EF0090211384AE
:104BF0001400825731E513F7070109C713070002B4
:104C0000A301E10613F7870009C71307B002A30148
:104C1000E10683C604001307A002638BE602B257C5
:104C20002684814625460347040093051400130794
:104C300007FD6374E6068DC63ED61DA00504B9BF08
:104C4000330555413315AC00C98F3ED0A28451BF06
:104C5000724793064700184336CE634907023AD697
:104C6000034704009307E002631FF704034714009F
:104C70009307A002631BF702F2470904138747005A
:104C80009C433ACE63C107023ED235A83307E040C9
:104C900093E727003AD63ED0E1B7B387670385464E
:104CA0002E84BA9749B7FD57C5B7050402D281468D
:104CB000814725460347040093051400130707FDA9
:104CC0006378E606F1F2834504000D4617450000BF
:104CD000130505EFEF00F01211CD97470000938701
:104CE00027EE1D8D93070004B397A7000255050416
:104CF0005D8D2AD083450400194617450000130531
:104D000065EC93041400230CB102EF00900F25C54D
:104D100097B7FFFF9387072F95E70257F24713775F
:104D2000071009CF91073ECED257D2973EDAB5B5DC
:104D3000B387670385462E84BA97ADBF9D07E19B75
:104D4000A107D5B7780897060000938666CD4A86F6
:104D50000C104E8597000000E7000000FD572A8ADE
:104D6000E314F5FC8357C9007D5593F70704E393DB
:104D700007DE5255C5B3780897060000938646CAE9
:104D80004A860C104E852929D1BF1C46FD171CC62A
:104D900063DA0700184E63C5E700A9476394F5007E
:104DA0006FF00FC61C422E851387170018C2238090
:104DB000B7008280011122CC26CA4AC84EC652C40E
:104DC00006CE2A89AE893284B304D6007D5A631494
:104DD0009400014511A8834504004E864A85EFF0F2
:104DE000DFFA0504E31545FFF2406244D24442492C
:104DF000B249224A05618280357122CD26CB4AC94B
:104E00004EC706CF52C556C35AC1DEDEE2DCE6DA33
:104E1000AA89AE843289368409C51C4D99E3EFF026
:104E2000BF8097470000938727D5639CF40C83A429
:104E3000490083D7C400A18BFDC79C48EDC79307E9
:104E40000002A304F1029307000302D22305F1023A
:104E500022C6930B5002974A0000938AEAD5054C6C
:104E6000294B4A848347040099C36391770FB30C9D
:104E70002441638E0C00E6864A86A6854E85EFF0B7
:104E80007FF3FD576306F51E9256E69636D28347AA
:104E90000400638F071CFD571309140002C802CEDB
:104EA0003ECA02CCA309010482D4834509001546F9
:104EB0005685812F13041900C24759E913F70701DA
:104EC00009C713070002A309E10413F7870009C704
:104ED0001307B002A309E104834609001307A002E7
:104EE0006380E608F2474A8481462546034704006A
:104EF00093051400130707FD6379E60AB5CA3ECE91
:104F000085A897470000938727C96395F40083A479
:104F1000890005B797470000938707C4E39BF4F027
:104F200083A4C90039B7A6854E85EFF06FB901D9C2
:104F30007D55FA406A44DA444A49BA492A4A9A4AAB
:104F40000A4BF65B665CD65C0D618280050419BF76
:104F5000330555413315AC00C98F3EC82289B1B71E
:104F6000324793064700184336C6634907023ACED4
:104F7000034704009307E002631FF704034714008C
:104F80009307A002631BF702B24709041387470087
:104F90009C433AC663C107023ECA35A83307E040C6
:104FA00093E727003ACE3EC8E1B7B387670385464B
:104FB0002E84BA9725BFFD57C5B7050402CA81469E
:104FC000814725460347040093051400130707FD96
:104FD0006376E606F1F2834504000D4617450000AE
:104FE000130505BE392D11CD97470000938747BDA6
:104FF0001D8D93070004B397A700424505045D8DFE
:105000002AC883450400194617450000130585BBCF
:10501000130914002304B102ED233DC197B7FFFF2C
:10502000938747FE95E74247B2471377071009CFAA
:1050300091073EC69257D2973ED225B5B3876703F4
:1050400085462E84BA97BDBF9D07E19BA107D5B7C2
:10505000780097060000938626D626860C084E8593
:1050600097000000E7000000FD572A8AE314F5FCD2
:1050700083D7C40093F70704E39C07EA125555BD94
:10508000780097060000938626D326860C084E8566
:10509000012AD9BF797156CA9C49BA8A984522D447
:1050A00026D24ECE52CC06D64AD05AC85EC6AA895F
:1050B0002E84B284368A63D3E700BA879CC0034744
:1050C000340419C385079CC01C4093F7070281C7AD
:1050D0009C4089079CC00329040013796900631A66
:1050E0000900130B9401FD5B5C449840998F634C5D
:1050F000F9041C408346340493F70702B336D0000A
:10510000A5EB13063404D2854E85829AFD576303BE
:10511000F5041C4011469840998B54448144639790
:10512000C700B384E64063D3040081441C4418489C
:105130006354F700998FBE94014969047D5B6398BD
:105140002405014509A885465A86D2854E85829A4E
:10515000631E75017D55B250225492540259F24992
:10516000624AD24A424BB24B456182800509ADBFCB
:105170003307D40013060003A301C70403475404F4
:1051800093871600A2978906A381E7049DBF8546F1
:105190002286D2854E85829AE30E65FB050945B7C6
:1051A000797122D426D24AD04ECE06D652CC56CAD7
:1051B0005AC8B68983C68501930790063289AA84A6
:1051C0002E8413863504638DF60263E2D7069307B7
:1051D00080056388F61863EDD70063810622930784
:1051E0003004638EF60A930A24042301D404C9A070
:1051F000930730066385F60A93074006E395F6FEAB
:105200001C40084393F6070893054500C5C61C419A
:105210000CC363D807001307D002B307F040A30103
:10522000E404974600009386669A29476DA8930781
:1052300000076384F61663E5D7029307E006638BE5
:10524000F6189307F006E390F6FA0C401C4313F8A7
:105250000508138547006307080608C39C438DA80B
:1052600093075007E383F6FE93078007638BF612DC
:1052700093073007E399F6F61C43D04181459386A6
:10528000470014C383AA07005685A52E01C5330520
:10529000554148C05C401CC8A301040471A81C43CC
:1052A000930A2404938647009C4314C32301F40407
:1052B0008547D5B793F607041C410CC3B9DAC2077A
:1052C000C18781BF93F5050408C3C9D983D70700F7
:1052D0001307F0066388E60E974600009386068F54
:1052E0002947A30104044C400CC463C505000840D1
:1052F0006D9908C099E3B28A91CDB28AB3F5E702FD
:10530000FD1AB69583C505002380BA00B3D5E70220
:1053100063F0E70CA147631EF7001C40858B91CB1F
:1053200058401C4863C7E70093070003A38FFAFEA9
:10533000FD1A3306564110C84E87CA867000A285F2
:105340002685EFF03FD57D5A631E450B7D55B25043
:10535000225492540259F249624AD24A424B456160
:105360008280A382D50497460000938626860C404F
:10537000084313F805081C411105630D080208C312
:1053800013F7150001C793E505020CC04147B1FBB7
:105390000C4093F5F5FD0CC0A9B79C4193E70702BB
:1053A0009CC193078007A302F404974600009386EC
:1053B000268375BF13F8050408C3E30308FCC2077E
:1053C000C1837DBF9746000093864680214711BF69
:1053D000AE872DB794411C43CC4913F806081385BA
:1053E00047006306080008C39C438CC301A808C398
:1053F00093F606049C43F5DA2390B70023280400B3
:10540000B28A1DBF14485686CA8526858299E30F45
:1054100045F31C40898B8DE7B2474844E359F5F2C8
:105420003E8535B785465686CA8526858299E30F1F
:1054300065F1050A5C443247998FE345FAFEE9BFFE
:10544000014A930A94017D5BF5B7411122C42A8475
:105450002E8523A001CA06C6EFD01FCAFD576317C9
:10546000F500938701CA9C4391C31CC0B2402244FB
:1054700041018280411122C42E848395E50006C635
:10548000E52C634905007C48AA977CC8B2402244B9
:10549000410182808357C4007D777D17F98F2316E1
:1054A000F400EDB783D7C500011122CC26CA4AC843
:1054B0004EC606CE93F70710AA842E843289B68989
:1054C00091C78395E5008946014631228357C40080
:1054D0007D777D17F98F2316F4008315E40062446D
:1054E000F240CE864A86B24942492685D2440561B9
:1054F0003DA8411122C42E848395E50006C6E1280B
:10550000FD570357C400631BF500FD77FD17F98FA6
:105510002316F400B2402244410182808567D98F6E
:105520002316F40068C8FDB78395E50005A841116E
:1055300022C42A842E85B285368623A001CA06C6D7
:10554000EFD09FB6FD576317F500938701CA9C43C0
:1055500091C31CC0B240224441018280411122C447
:105560002A842E8523A001CA06C6B924FD576317D5
:10557000F500938701CA9C4391C31CC0B2402244EA
:1055800041018280411122C42A842E85B28523A044
:1055900001CA06C6052CFD576317F500938701CA9B
:1055A0009C4391C31CC0B2402244410182804111FE
:1055B00022C42A842E8523A001CA06C6112CFD57B9
:1055C0006317F500938701CA9C4391C31CC0B24086
:1055D000224441018280411122C42A842E85B28551
:1055E000368623A001CA06C6D52AFD576317F500E3
:1055F000938701CA9C4391C31CC0B240224441011D
:10560000828093F5F50F2A966314C50001458280C8
:1056100083470500E38DB7FE0505FDB7B3C7A500B9
:105620008D8B3307C50081E78D4763EEC700AA87DE
:105630006370E50A83C6050085078505A38FD7FE3D
:10564000E3EAE7FE828093763500AA8791CA83C693
:10565000050085078505A38FD7FE93F63700FDB7B4
:105660009376C7FF138606FE63F0C70683A3050083
:1056700083A2450083AF850003AFC50083AE05015B
:1056800003AE450103A3850183A8C50193854502A7
:1056900023A0770003A8C5FF23A2570023A4F70186
:1056A00023A6E70123A8D70123AAC70123AC6700DB
:1056B00023AE17019387470223AE07FF75B79041CA
:1056C0009107910523AEC7FEE3EBD7FEE3E4E7F6CF
:1056D000828063F3A504B386C500637FD50293453A
:1056E000F6FF8147FD176393F50082803387F6004C
:1056F000034807003387C7002A9723000701DDB757
:105700003387F500834607003307F500850723003C
:10571000D700E317F6FE82808147E5BF8280828052
:1057200081E5B2856FF0EFA1011122CC06CE26CA29
:105730004AC84EC6328401EEEFF02F960149F2407E
:1057400062444A85D2444249B24905618280AE84AE
:10575000AA8989282689E37485FEA2854E85EFF003
:105760004F9E2A8969DDA6852286EFF03FEBA6854C
:105770004E85EFF08F92E1B7411122C42A842E8525
:10578000B285368623A001CA06C6B928FD5763171D
:10579000F500938701CA9C4391C31CC0B2402244C8
:1057A0004101828083A7C5FF1385C7FF63D507002A
:1057B000AA959C413E9582809307800523A0F1CA5B
:1057C0007D5582809307800523A0F1CA7D55828094
:1057D0009307800523A0F1CA0145828093078005C5
:1057E00023A0F1CA7D5582809307800523A0F1CACA
:1057F0007D55828049206861766520612070726FD6
:10580000626C656D2C49206E6565642068656C70FE
:105810002E0D0A005468657265206973206E6F2032
:10582000616E7920646566696E6520415343325F1D
:105830003132303820262620415343325F32343112
:105840003220262620415343325F3234313620261F
:105850002620415343325F3332313620210000008D
:10586000666F6E742073697A6528256429206973D0
:10587000206E6F7420737570706F72742100000059
:105880000000000000000000000000000000000018
:105890000000001010101010100000101000000088
:1058A0000000002828282800000000000000000058
:1058B0000000001212167F2424FE28484800000031
:1058C000000008083E4948683E0B09493E080800A8
:1058D000000000609090620C30460909060000004C
:1058E0000000001C20203030494545623D0000008A
:1058F0000000001010101000000000000000000068
:1059000000000C0808101010101010080804000007
:1059100000003010100808080808081010300000B7
:1059200000000008493E1C6B080000000000000059
:105930000000000000101010FE1010100000000009
:1059400000000000000000000000001818102000F7
:10595000000000000000000000380000000000000F
:105960000000000000000000000000181800000007
:105970000000000204040408081010202020400049
:105980000000001C22414149414141221C0000000D
:105990000000001828080808080808083E00000051
:1059A0000000003E43010102060C10207F000000B1
:1059B0000000003E4101031C030101433E000000C2
:1059C000000000060A1A1222427F020202000000B2
:1059D0000000007E40407C42010101423C0000008A
:1059E0000000001E3160405E634141231E00000044
:1059F0000000007F030204040808101020000000CB
:105A00000000003E4141413E634141633E000000D1
:105A10000000003C624141633D0103463C00000040
:105A20000000000000001818000000181800000016
:105A300000000000000018180000001818102000D6
:105A40000000000000010E3840380E010000000088
:105A50000000000000007F00007F00000000000048
:105A6000000000000040380E010E38400000000029
:105A70000000003844040C18101000101000000042
:105A80000000001E332147494949494720300E0094
:105A90000000000814141414223E224141000000AA
:105AA0000000007E4141417E434141437E000000B1
:105AB0000000001E21404040404040211E000000E8
:105AC0000000007C42414141414141427C000000D4
:105AD0000000007F4040407F404040407F00000089
